:020000040800F2
:10000000002800201D170008D9140008E11400087A
:10001000E9140008F1140008F914000800000000B9
:1000200000000000000000000000000001150008B2
:100030000D1500080000000019150008251500081E
:1000400065170008651700086517000865170008A0
:100050006517000865170008651700086517000890
:100060006517000865170008651700086517000880
:100070006517000865170008651700086517000870
:100080006517000865170008651700086517000860
:100090006517000865170008651700086517000850
:1000A0006517000865170008651700086517000840
:1000B00065170008651700080000000065170008B4
:1000C0006517000800000000000000006517000828
:1000D0000000000065170008651700080000000018
:1000E0006517000865170008651700080000000084
:1000F0000000000000000000000000000000000000
:0C01000000000000000000005FF808F1A3
:1001100010B5054C237833B9044B13B10448AFF341
:1001200000800123237010BDD401002000000000D6
:10013000AC5D000808B5034B1BB103490348AFF39E
:10014000008008BD00000000D8010020AC5D000860
:10015000034613F8012B002AFBD1181A0138704707
:1001600081F0004102E000BF83F0004330B54FEA68
:1001700041044FEA430594EA050F08BF90EA020FD5
:100180001FBF54EA000C55EA020C7FEA645C7FEA68
:10019000655C00F0E2804FEA5454D4EB5555B8BF8B
:1001A0006D420CDD2C4480EA020281EA030382EAFC
:1001B000000083EA010180EA020281EA0303362D8E
:1001C00088BF30BD11F0004F4FEA01314FF4801C61
:1001D0004CEA113102D0404261EB410113F0004F73
:1001E0004FEA03334CEA133302D0524263EB43032A
:1001F00094EA050F00F0A780A4F10104D5F1200EC8
:100200000DDB02FA0EFC22FA05F2801841F1000122
:1002100003FA0EF2801843FA05F359410EE0A5F1F6
:1002200020050EF1200E012A03FA0EFC28BF4CF027
:10023000020C43FA05F3C01851EBE37101F00045DD
:1002400007D54FF0000EDCF1000C7EEB00006EEBEA
:100250000101B1F5801F1BD3B1F5001F0CD3490874
:100260005FEA30004FEA3C0C04F101044FEA4452CB
:1002700012F5800F80F09A80BCF1004F08BF5FEA52
:10028000500C50F1000041EB045141EA050130BD32
:100290005FEA4C0C404141EB0101013C28BFB1F544
:1002A000801FE9D291F0000F04BF01460020B1FA8F
:1002B00081F308BF2033A3F10B03B3F120020CDA62
:1002C0000C3208DD02F1140CC2F10C0201FA0CF040
:1002D00021FA02F10CE002F11402D8BFC2F1200CA5
:1002E00001FA02F120FA0CFCDCBF41EA0C0190405B
:1002F000E41AA2BF01EB0451294330BD6FEA0404A4
:100300001F3C1CDA0C340EDC04F11404C4F120028E
:1003100020FA04F001FA02F340EA030021FA04F3A0
:1003200045EA030130BDC4F10C04C4F1200220FAF7
:1003300002F001FA04F340EA0300294630BD21FA35
:1003400004F0294630BD94F0000F83F4801306BFFB
:1003500081F480110134013D4EE77FEA645C18BFEF
:100360007FEA655C29D094EA050F08BF90EA020F86
:1003700005D054EA000C04BF1946104630BD91EA7E
:10038000030F1EBF0021002030BD5FEA545C05D181
:100390004000494128BF41F0004130BD14F58004C0
:1003A0003CBF01F5801130BD01F0004545F0FE4134
:1003B00041F470014FF0000030BD7FEA645C1ABF69
:1003C000194610467FEA655C1CBF0B46024650EAA0
:1003D000013406BF52EA033591EA030F41F40021CC
:1003E00030BD00BF90F0000F04BF0021704730B552
:1003F0004FF4806404F132044FF000054FF0000127
:1004000050E700BF90F0000F04BF0021704730B5E7
:100410004FF4806404F1320410F0004548BF4042BC
:100420004FF000013EE700BF42004FEAE2014FEA11
:1004300031014FEA02701FBF12F07F4393F07F4FEC
:1004400081F06051704732F07F4208BF704793F0EF
:100450007F4F04BF41F40021704730B54FF4607402
:1004600001F0004521F000411CE700BF50EA010205
:1004700008BF704730B54FF000050AE050EA0102AE
:1004800008BF704730B511F0004502D5404261EB1E
:1004900041014FF4806404F132045FEA915C3FF45F
:1004A000D8AE4FF003025FEADC0C18BF03325FEAFC
:1004B000DC0C18BF033202EBDC02C2F1200300FAAD
:1004C00003FC20FA02F001FA03FE40EA0E0021FAD2
:1004D00002F11444BDE600BF70B54FF0FF0C4CF4C0
:1004E000E06C1CEA11541DBF1CEA135594EA0C0F72
:1004F00095EA0C0F00F0DEF82C4481EA030621EAAD
:100500004C5123EA4C5350EA013518BF52EA0335E7
:1005100041F4801143F4801338D0A0FB02CE4FF099
:100520000005E1FB02E506F00042E0FB03E54FF0C9
:100530000006E1FB03569CF0000F18BF4EF0010EC1
:10054000A4F1FF04B6F5007F64F5407404D25FEABD
:100550004E0E6D4146EB060642EAC62141EA555170
:100560004FEAC52040EA5E504FEACE2EB4F1FD0CB2
:1005700088BFBCF5E06F1ED8BEF1004F08BF5FEA30
:10058000500E50F1000041EB045170BD06F00046E2
:1005900046EA010140EA020081EA0301B4EB5C048F
:1005A000C2BFD4EB0C0541EA045170BD41F4801187
:1005B0004FF0000E013C00F3AB8014F1360FDEBFAC
:1005C000002001F0004170BDC4F10004203C35DA88
:1005D0000C341BDC04F11404C4F1200500FA05F30B
:1005E00020FA04F001FA05F240EA020001F00042AC
:1005F00021F0004110EBD37021FA04F642EB060122
:100600005EEA430E08BF20EAD37070BDC4F10C044B
:10061000C4F1200500FA04F320FA05F001FA04F20F
:1006200040EA020001F0004110EBD37041F10001FB
:100630005EEA430E08BF20EAD37070BDC4F1200506
:1006400000FA05F24EEA020E20FA04F301FA05F26E
:1006500043EA020321FA04F001F0004121FA04F216
:1006600020EA020000EBD3705EEA430E08BF20EAE6
:10067000D37070BD94F0000F0FD101F00046400020
:1006800041EB010111F4801F08BF013CF7D041EAA2
:10069000060195F0000F18BF704703F000465200A6
:1006A00043EB030313F4801F08BF013DF7D043EA77
:1006B0000603704794EA0C0F0CEA135518BF95EA2D
:1006C0000C0F0CD050EA410618BF52EA4306D1D1B4
:1006D00081EA030101F000414FF0000070BD50EAD3
:1006E000410606BF1046194652EA430619D094EA5D
:1006F0000C0F02D150EA013613D195EA0C0F05D147
:1007000052EA03361CBF104619460AD181EA03019A
:1007100001F0004141F0FE4141F470014FF0000052
:1007200070BD41F0FE4141F4780170BD70B54FF0ED
:10073000FF0C4CF4E06C1CEA11541DBF1CEA13556D
:1007400094EA0C0F95EA0C0F00F0A7F8A4EB05044F
:1007500081EA030E52EA03354FEA013100F0888046
:100760004FEA03334FF0805545EA131343EA12630F
:100770004FEA022245EA111545EA10654FEA0026C4
:100780000EF000419D4208BF964244F1FD0404F57D
:10079000407402D25B084FEA3202B61A65EB0305D9
:1007A0005B084FEA32024FF480104FF4002CB6EB96
:1007B000020E75EB030E22BFB61A754640EA0C0016
:1007C0005B084FEA3202B6EB020E75EB030E22BF56
:1007D000B61A754640EA5C005B084FEA3202B6EB97
:1007E000020E75EB030E22BFB61A754640EA9C0056
:1007F0005B084FEA3202B6EB020E75EB030E22BF26
:10080000B61A754640EADC0055EA060E18D04FEAE3
:10081000051545EA16754FEA06164FEAC30343EA83
:1008200052734FEAC2025FEA1C1CC0D111F4801F50
:100830000BD141EA00014FF000004FF0004CB6E749
:1008400011F4801F04BF01430020B4F1FD0C88BFE8
:10085000BCF5E06F3FF6AFAEB5EB030C04BFB6EBF3
:10086000020C5FEA500C50F1000041EB045170BDE6
:100870000EF0004E4EEA113114EB5C04C2BFD4EB13
:100880000C0541EA045170BD41F480114FF0000E97
:10089000013C90E645EA060E8DE60CEA135594EA13
:1008A0000C0F08BF95EA0C0F3FF43BAF94EA0C0F16
:1008B0000AD150EA01347FF434AF95EA0C0F7FF48B
:1008C00025AF104619462CE795EA0C0F06D152EADF
:1008D00003353FF4FDAE1046194622E750EA4106C3
:1008E00018BF52EA43067FF4C5AE50EA41047FF4D4
:1008F0000DAF52EA43057FF4EBAE12E74FF0FF3C39
:1009000006E000BF4FF0010C02E000BF4FF0010C09
:100910004DF804CD4FEA410C7FEA6C5C4FEA430C82
:1009200018BF7FEA6C5C1BD001B050EA410C0CBFD1
:1009300052EA430C91EA030F02BF90EA020F002033
:10094000704710F1000F91EA030F58BF994208BF9A
:1009500090422CBFD8176FEAE37040F00100704757
:100960004FEA410C7FEA6C5C02D150EA013C07D1AE
:100970004FEA430C7FEA6C5CD6D152EA033CD3D0F9
:100980005DF8040B704700BF8446104662468C46F3
:100990001946634600E000BF01B5FFF7B7FF002826
:1009A00048BF10F1000F01BD4DF808EDFFF7F4FF4F
:1009B0000CBF012000205DF808FB00BF4DF808EDDA
:1009C000FFF7EAFF34BF012000205DF808FB00BFFD
:1009D0004DF808EDFFF7E0FF94BF012000205DF81F
:1009E00008FB00BF4DF808EDFFF7CEFF94BF0120D4
:1009F00000205DF808FB00BF4DF808EDFFF7C4FFCD
:100A000034BF012000205DF808FB00BF4FEA410C15
:100A10007FEA6C5C02D150EA013C0AD14FEA430CF8
:100A20007FEA6C5C02D152EA033C02D14FF0000035
:100A300070474FF0010070474FEA410212F5001273
:100A400015D211D56FF47873B3EB625212D94FEA15
:100A5000C12343F0004343EA505311F0004F23FAFF
:100A600002F018BF404270474FF00000704750EA54
:100A7000013005D111F0004008BF6FF00040704711
:100A80004FF00000704700BF80F0004002E000BF60
:100A900081F0004142001FBF5FEA410392EA030F69
:100AA0007FEA226C7FEA236C6AD04FEA1262D2EBB3
:100AB0001363C1BFD218414048404140B8BF5B42B8
:100AC000192B88BF704710F0004F40F4000020F051
:100AD0007F4018BF404211F0004F41F4000121F067
:100AE0007F4118BF494292EA030F3FD0A2F10102B1
:100AF00041FA03FC10EB0C00C3F1200301FA03F1EF
:100B000000F0004302D5494260EB4000B0F5000F11
:100B100013D3B0F1807F06D340084FEA310102F1D0
:100B20000102FE2A51D2B1F1004F40EBC25008BF82
:100B300020F0010040EA03007047490040EB00004C
:100B4000013A28BFB0F5000FEDD2B0FA80FCACF14D
:100B5000080CB2EB0C0200FA0CF0AABF00EBC2507A
:100B600052421843BCBFD0401843704792F0000F68
:100B700081F4000106BF80F400000132013BB5E7BB
:100B80004FEA41037FEA226C18BF7FEA236C21D031
:100B900092EA030F04D092F0000F08BF0846704796
:100BA00090EA010F1CBF0020704712F07F4F04D164
:100BB000400028BF40F00040704712F100723CBF77
:100BC00000F50000704700F0004343F0FE4040F4A1
:100BD000000070477FEA226216BF08467FEA23635F
:100BE0000146420206BF5FEA412390EA010F40F44A
:100BF000800070474FF0000304E000BF10F0004396
:100C000048BF40425FEA000C08BF704743F096437C
:100C100001464FF000001CE050EA010208BF704797
:100C20004FF000030AE000BF50EA010208BF70471E
:100C300011F0004302D5404261EB41015FEA010C33
:100C400002BF84460146002043F0B64308BFA3F12B
:100C50008053A3F50003BCFA8CF2083AA3EBC2530D
:100C600010DB01FA02FC634400FA02FCC2F120022C
:100C7000BCF1004F20FA02F243EB020008BF20F063
:100C80000100704702F1200201FA02FCC2F12002C9
:100C900050EA4C0021FA02F243EB020008BF20EABE
:100CA000DC7070474FF0FF0C1CEAD0521EBF1CEAEC
:100CB000D15392EA0C0F93EA0C0F6FD01A4480EADA
:100CC000010C400218BF5FEA41211ED04FF00063C3
:100CD00043EA501043EA5111A0FB01310CF00040EF
:100CE000B1F5000F3EBF490041EAD3715B0040EA15
:100CF000010062F17F02FD2A1DD8B3F1004F40EBE5
:100D0000C25008BF20F00100704790F0000F0CF0B7
:100D1000004C08BF49024CEA502040EA51207F3A7B
:100D2000C2BFD2F1FF0340EAC250704740F4000056
:100D30004FF00003013A5DDC12F1190FDCBF00F047
:100D400000407047C2F10002410021FA02F1C2F1F5
:100D5000200200FA02FC5FEA310040F1000053EA91
:100D60004C0308BF20EADC70704792F0000F00F0DF
:100D7000004C02BF400010F4000F013AF9D040EAE5
:100D80000C0093F0000F01F0004C02BF490011F479
:100D9000000F013BF9D041EA0C018FE70CEAD15377
:100DA00092EA0C0F18BF93EA0C0F0AD030F0004CF7
:100DB00018BF31F0004CD8D180EA010000F00040AB
:100DC000704790F0000F17BF90F0004F084691F069
:100DD000000F91F0004F14D092EA0C0F01D14202A3
:100DE0000FD193EA0C0F03D14B0218BF084608D16C
:100DF00080EA010000F0004040F0FE4040F40000B6
:100E0000704740F0FE4040F4400070474FF0FF0C48
:100E10001CEAD0521EBF1CEAD15392EA0C0F93EA8F
:100E20000C0F69D0A2EB030280EA010C49024FEAE1
:100E3000402037D04FF0805343EA111143EA10139A
:100E40000CF000408B4238BF5B0042F17D024FF452
:100E5000000C8B4224BF5B1A40EA0C00B3EB510F2D
:100E600024BFA3EB510340EA5C00B3EB910F24BF16
:100E7000A3EB910340EA9C00B3EBD10F24BFA3EB9B
:100E8000D10340EADC001B0118BF5FEA1C1CE0D163
:100E9000FD2A3FF650AF8B4240EBC25008BF20F016
:100EA000010070470CF0004C4CEA50207F32C2BF6A
:100EB000D2F1FF0340EAC250704740F400004FF007
:100EC0000003013A37E792F0000F00F0004C02BF38
:100ED000400010F4000F013AF9D040EA0C0093F002
:100EE000000F01F0004C02BF490011F4000F013B5C
:100EF000F9D041EA0C0195E70CEAD15392EA0C0FC4
:100F000008D142027FF47DAF93EA0C0F7FF470AFFB
:100F1000084676E793EA0C0F04D14B023FF44CAF3E
:100F200008466EE730F0004C18BF31F0004CCAD1D3
:100F300030F000427FF45CAF31F000437FF43CAF0F
:100F40005FE700BF80B500AF01220421074801F030
:100F50002DFB012000F06AFC00220421034801F06F
:100F600025FB012000F062FC00BF80BD000C0140A9
:100F700080B582B000AF0346FB71FB7903F001033B
:100F8000DBB21A464FF48061154801F00FFBFB7984
:100F90005B08DBB203F00103DBB21A464FF40061D9
:100FA0000F4801F003FBFB799B08DBB203F0010360
:100FB000DBB21A464FF48051094801F0F7FAFB7989
:100FC000DB08DBB203F00103DBB21A464FF4005139
:100FD000034801F0EBFA00BF0837BD4680BD00BFF3
:100FE000000C014080B582B000AF0346FB710022C7
:100FF00002210D4801F0DAFAFB791B09DBB2184631
:10100000FFF7B6FFFFF79EFFFB7903F00F03DBB29C
:101010001846FFF7ADFFFFF795FF022000F006FC32
:1010200000BF0837BD4680BD000C014080B582B0CE
:1010300000AF0346FB71012202210D4801F0B6FA10
:10104000FB791B09DBB21846FFF792FFFFF77AFF27
:10105000FB7903F00F03DBB21846FFF789FFFFF7B8
:1010600071FF012000F0E2FB00BF0837BD4680BDE4
:10107000000C014080B500AF322000F0D7FB032008
:10108000FFF776FFFFF75EFF052000F0CFFB0320A0
:10109000FFF76EFFFFF756FF052000F0C7FB0320A8
:1010A000FFF766FFFFF74EFF052000F0BFFB0220B1
:1010B000FFF75EFFFFF746FF012000F0B7FB282097
:1010C000FFF790FF0C20FFF78DFF0620FFF78AFF48
:1010D0000120FFF787FF022000F0A8FB00BF80BDC2
:1010E00080B584B000AF03460A46FB711346BB715E
:1010F0004FF48043BB81BB7910333B4413F8042C7D
:10110000FB791344DBB25BB263F07F035BB2DBB20B
:101110001846FFF767FF00BF1037BD4680BD80B59A
:1011200082B000AF786006E07B685A1C7A601B785A
:101130001846FFF77BFF7B681B78002BF4D100BFBC
:1011400000BF0837BD4680BD90B589B002AF78605A
:101150000B46FB70FC787868FFF766F902460B4691
:1011600007F10800CDE900232346064A102102F0CA
:101170000BFC07F108031846FFF7D1FF00BF1C372F
:10118000BD4690BDC85D000880B582B000AF00F0DC
:10119000EBFA00F059F800F0EBF800F0ABF8FFF7CD
:1011A00069FF00210020FFF79BFF214800F03AFC77
:1011B0004FF47A711E4800F00FFD1D4800F006FE46
:1011C00003461C4A13601A4800F0DAFC0021002094
:1011D000FFF786FF174B1B681846FFF70BFD03460A
:1011E00015491846FFF712FE03467B600221786816
:1011F000FFF7AAFF01210020FFF772FF0F4978686F
:10120000FFF746FC03460E491846FFF743FC03462A
:101210000C491846FFF7FAFD03463B600221386887
:10122000FFF792FF642000F001FB00BFBDE700BFA5
:10123000F4010020F001002000C04C441EA7204013
:10124000E030D13A567DAE3D80B594B000AF07F1A5
:10125000280328220021184602F08EFC07F114030F
:1012600000221A605A609A60DA601A613B1D0022FF
:101270001A605A609A60DA600223BB620123BB6382
:101280001023FB6302237B640023BB644FF44023E1
:10129000FB6407F12803184601F0A0F90346002B70
:1012A00001D000F0A5F80F237B610223BB618023EE
:1012B000FB6100233B6200237B6207F114030021E2
:1012C000184601F00DFC0346002B01D000F090F809
:1012D00002237B600023FB603B1D184601F084FD68
:1012E0000346002B01D000F083F800BF5037BD4605
:1012F00080BD000080B584B000AF3B1D00221A60A5
:101300005A609A60184B194A1A60174B00229A606B
:10131000154B01221A73144B00221A75124B4FF40D
:101320006022DA61104B00225A600F4B01221A61D1
:101330000D4800F09FFA0346002B01D000F058F84A
:1013400000237B600123BB600023FB603B1D19462B
:10135000054800F047FD0346002B01D000F048F897
:1013600000BF1037BD4680BDF401002000240140BD
:1013700080B586B000AF07F1080300221A605A60FA
:101380009A60DA60184B9B69174A43F00403936133
:10139000154B9B6903F004037B607B68124B9B69D0
:1013A000114A43F0080393610F4B9B6903F0080354
:1013B0003B603B68002243F606410C4801F0F6F81A
:1013C00043F60643BB600123FB6000233B6102231D
:1013D0007B6107F108031946044800F06BFF00BF6A
:1013E0001837BD4680BD00BF00100240000C014010
:1013F00080B400AF00BFBD4680BC704780B485B0EC
:1014000000AF154B9B69144A43F001039361124BE3
:101410009B6903F00103BB60BB680F4BDB690E4A9D
:1014200043F08053D3610C4BDB6903F080537B6046
:101430007B680A4B5B68FB60FB6823F0E063FB6042
:10144000FB6843F08063FB60044AFB68536000BFA5
:101450001437BD4680BC70470010024000000140B8
:1014600080B588B000AF786007F1100300221A60E1
:101470005A609A60DA607B681B68144A934221D1F3
:10148000134B9B69124A43F400739361104B9B69A1
:1014900003F40073FB60FB680D4B9B690C4A43F03F
:1014A000040393610A4B9B6903F00403BB60BB68B0
:1014B00001233B6103237B6107F1100319460548B3
:1014C00000F0F8FE00BF2037BD4680BD002401407B
:1014D000001002400008014080B400AF00BFFDE7EB
:1014E00080B400AF00BFFDE780B400AF00BFFDE7F0
:1014F00080B400AF00BFFDE780B400AF00BFFDE7E0
:1015000080B400AF00BFBD4680BC704780B400AF60
:1015100000BFBD4680BC704780B400AF00BFBD4671
:1015200080BC704780B500AF00F064F900BF80BD9B
:1015300080B400AF01231846BD4680BC704780B51B
:1015400082B000AF7860396002F01EFB03461622BD
:101550001A604FF0FF3318460837BD4680BD80B58E
:1015600082B000AF78604FF0FF317868FFF7E7FF97
:1015700000BFFDE780B586B000AFF860B9607A6063
:1015800000237B610AE0AFF300800146BB685A1C70
:10159000BA60CAB21A707B6901337B617A697B6871
:1015A0009A42F0DB7B6818461837BD4680BD80B58F
:1015B00086B000AFF860B9607A6000237B6109E013
:1015C000BB685A1CBA601B781846AFF300807B6971
:1015D00001337B617A697B689A42F1DB7B6818464C
:1015E0001837BD4680BD80B483B000AF78604FF03F
:1015F000FF3318460C37BD4680BC704780B483B0BB
:1016000000AF786039603B684FF400525A600023A5
:1016100018460C37BD4680BC704780B483B000AF1D
:101620007860012318460C37BD4680BC704780B4F3
:1016300085B000AFF860B9607A60002318461437AF
:10164000BD4680BC7047000080B586B000AF7860B2
:10165000144A154BD31A7B617B693B61134B1B68A2
:10166000002B02D1114B124A1A60104B1A687B688A
:1016700013443A699A4207D202F086FA03460C22D2
:101680001A604FF0FF3309E0084B1B68FB60074B03
:101690001A687B681344054A1360FB6818461837BC
:1016A000BD4680BD00280020000400002402002068
:1016B0007803002080B400AF154B1B68144A43F038
:1016C00001031360124B5A681149124B13404B60CF
:1016D0000F4B1B680E4A23F0847323F4803313608E
:1016E0000B4B1B680A4A23F480231360084B5B688A
:1016F000074A23F4FE035360054B4FF41F029A6020
:10170000054B4FF000629A6000BFBD4680BC704739
:10171000001002400000FFF800ED00E0002103E0AF
:101720000B4B5B58435004310A480B4B42189A420A
:10173000F6D30A4A02E0002342F8043B084B9A42DF
:10174000F9D3FFF7B7FF02F025FAFFF71DFD704749
:101750009461000800000020D4010020D401002082
:1017600078030020FEE7000080B500AF084B1B683F
:10177000074A43F010031360032000F067FD0F20B9
:1017800000F008F8FFF73AFE0023184680BD00BFBE
:101790000020024080B582B000AF7860124B1A681A
:1017A000124B1B7819464FF47A73B3FBF1F3B2FB7B
:1017B000F3F3184600F071FD0346002B01D001231E
:1017C0000EE07B680F2B0AD8002279684FF0FF30BB
:1017D00000F047FD064A7B681360002300E0012308
:1017E00018460837BD4680BD0000002008000020D4
:1017F0000400002080B400AF054B1B781A46054B4F
:101800001B681344034A136000BFBD4680BC704789
:10181000080000202802002080B400AF024B1B68A3
:101820001846BD4680BC70472802002080B584B0B1
:1018300000AF7860FFF7F0FFB8607B68FB60FB6883
:10184000B3F1FF3F05D00A4B1B781A46FB681344DF
:10185000FB6000BFFFF7E0FF0246BB68D31AFA68DF
:101860009A42F7D800BF00BF1037BD4680BD00BF09
:101870000800002080B586B000AF78600023FB75BB
:1018800000233B610023BB600023FB607B68002BCF
:1018900001D10123BEE07B689B68002B7B689B6ABB
:1018A000002B09D17B680022DA627B68002283F872
:1018B00024207868FFF7D4FD786800F0DDFB03464C
:1018C000FB757B689B6A03F01003002B40F0998046
:1018D000FB7D002B40F095807B689B6A23F4885346
:1018E00023F0020343F002027B689A627B685A6825
:1018F0007B68DB691A437B681B7B5B001343BA6818
:101900001343BB607B689B68B3F5807F03D07B6823
:101910009B68012B02D14FF4807300E000233A69E9
:1019200013433B617B681B7D012B19D17B681B7BBB
:10193000002B09D17B689B69013B5A033B69134328
:1019400043F400633B610BE07B689B6A43F0200239
:101950007B689A627B68DB6A43F001027B68DA622B
:101960007B681B685B6823F469417B681B683A6984
:101970000A435A607B681B689A68284B13407A6850
:101980001268B9680B4393607B689B68B3F5807FEE
:1019900003D07B689B68012B04D17B681B69013BEA
:1019A0001B05FB607B681B68DB6A23F470017B68A6
:1019B0001B68FA680A43DA627B681B689A68184BEE
:1019C0001340BA689A420BD17B680022DA627B68C6
:1019D0009B6A23F0030343F001027B689A6218E0DC
:1019E0007B689B6A23F0120343F010027B689A62C3
:1019F0007B68DB6A43F001027B68DA620123FB75D6
:101A000007E07B689B6A43F010027B689A620123BF
:101A1000FB75FB7D18461837BD4680BDFDF7E1FF1D
:101A2000FE0E1FFF80B584B000AF78600023FB730B
:101A30007B6893F82430012B01D1022398E07B6866
:101A4000012283F82420786800F0C4FA0346FB736F
:101A5000FB7B002B40F087807B689B6A23F44073FC
:101A600023F0010343F480727B689A627B681B68F1
:101A7000414A934205D1414B5B6803F47023002B2C
:101A800015D17B689B6A23F480127B689A627B681D
:101A90001B685B6803F48063002B26D07B689B6A1D
:101AA00023F4405343F480527B689A621DE07B68C4
:101AB0009B6A43F480127B689A627B681B682F4A9A
:101AC000934204D07B681B682B4A93420DD12B4B69
:101AD0005B6803F48063002B07D07B689B6A23F468
:101AE000405343F480527B689A627B689B6A03F49C
:101AF0008053002B06D07B68DB6A23F006027B68EC
:101B0000DA6202E07B680022DA627B68002283F8F6
:101B100024207B681B686FF002021A607B681B68D8
:101B20009B6803F46023B3F5602F13D17B681B68B7
:101B3000114A934205D1114B5B6803F47023002BCB
:101B400008D17B681B689A687B681B6842F4A00216
:101B50009A600CE07B681B689A687B681B6842F49B
:101B600080129A6003E07B68002283F82420FB7BCC
:101B700018461037BD4680BD0028014000240140B2
:101B800080B584B000AF78600023FB737B6893F866
:101B90002430012B01D102231AE07B68012283F853
:101BA0002420786800F068FA0346FB73FB7B002B67
:101BB00009D17B689B6A23F4885323F0010343F027
:101BC00001027B689A627B68002283F82420FB7BF9
:101BD00018461037BD4680BD90B587B000AF78601D
:101BE000396000237B610023FB6000233B61FFF72A
:101BF00013FE78617B681B689B6803F48073002B7D
:101C00000BD07B689B6A43F020027B689A627B68FA
:101C1000002283F824200123C8E07B681B685B68EE
:101C200003F48073002B2AD17B681B68DB6A03F402
:101C30007003002B23D11AE03B68B3F1FF3F16D0AD
:101C40003B68002B07D0FFF7E7FD02467B69D31AFC
:101C50003A689A420BD27B689B6A43F004027B6825
:101C60009A627B68002283F8242003239EE07B682D
:101C70001B681B6803F00203002BDDD06CE04D4BAA
:101C80001C68022001F066F90346B4FBF3F27B689E
:101C90001B681969484B0B40002B18D17B681B68E7
:101CA000D968464B0B40002B11D17B681B68196922
:101CB000434B0B40002B08D17B681B68D968414B14
:101CC0000B40002B01D1142320E029231EE07B6868
:101CD0001B6819693A4B0B40002B06D17B681B68C7
:101CE000D968384B0B40002B0DD07B681B681969F5
:101CF000354B0B40002B08D17B681B68D968324BF1
:101D00000B40002B01D1542300E0FC2302FB03F322
:101D10003B611DE03B68B3F1FF3F16D03B68002BF1
:101D200007D0FFF779FD02467B69D31A3A689A42D9
:101D30000BD27B689B6A43F004027B689A627B68E3
:101D4000002283F82420032330E0FB680133FB608A
:101D5000FB683A699A42DDD87B681B686FF0120213
:101D60001A607B689B6A43F400727B689A627B68A6
:101D70001B689B6803F46023B3F5602F15D17B6863
:101D80001B7B002B11D17B689B6A23F480727B68DC
:101D90009A627B689B6A03F48053002B05D17B68B1
:101DA0009B6A43F001027B689A62002318461C3745
:101DB000BD4690BD00000020244992242449920091
:101DC00092244912922449004992240080B483B09D
:101DD00000AF78607B681B68DB6C18460C37BD462B
:101DE00080BC704780B485B000AF78603960002354
:101DF000FB730023BB607B6893F82430012B01D177
:101E00000223DCE07B68012283F824203B685B68C6
:101E1000062B1CD87B681B68596B3B685A681346B5
:101E20009B001344053B1F2202FA03F3DB431940D6
:101E30003B6818683B685A6813469B001344053B8F
:101E400000FA03F27B681B680A435A633CE03B6874
:101E50005B680C2B1CD87B681B68196B3B685A6845
:101E600013469B001344233B1F2202FA03F3DB4378
:101E700019403B6818683B685A6813469B00134436
:101E8000233B00FA03F27B681B680A431A631BE0DA
:101E90007B681B68D96A3B685A6813469B001344E9
:101EA000413B1F2202FA03F3DB4319403B681868E9
:101EB0003B685A6813469B001344413B00FA03F207
:101EC0007B681B680A43DA623B681B68092B1CD9D4
:101ED0007B681B68D9683B681A6813465B0013442B
:101EE0001E3B072202FA03F3DB4319403B68986864
:101EF0003B681A6813465B0013441E3B00FA03F26A
:101F00007B681B680A43DA6019E07B681B68196903
:101F10003B681A6813465B001344072202FA03F376
:101F2000DB4319403B6898683B681A6813465B00BE
:101F3000134400FA03F27B681B680A431A613B688A
:101F40001B68102B03D03B681B68112B32D17B68B8
:101F50001B681D4A934225D17B681B689B6803F46C
:101F60000003002B26D17B681B689A687B681B687E
:101F700042F400029A603B681B68102B1AD1134B85
:101F80001B68134AA2FB03239A0C13469B001344BD
:101F90005B00BB6002E0BB68013BBB60BB68002B21
:101FA000F9D107E07B689B6A43F020027B689A6264
:101FB0000123FB737B68002283F82420FB7B1846F7
:101FC0001437BD4680BC704700240140000000204B
:101FD00083DE1B4380B584B000AF78600023FB60D4
:101FE0000023BB607B681B689B6803F00103012B27
:101FF00039D07B681B689A687B681B6842F00102D5
:102000009A601B4B1B681B4AA2FB03239B0CBB6003
:1020100002E0BB68013BBB60BB68002BF9D1FFF756
:10202000FBFBF86018E0FFF7F7FB0246FB68D31AEA
:10203000022B11D97B689B6A43F010027B689A627D
:102040007B68DB6A43F001027B68DA627B6800220E
:1020500083F82420012307E07B681B689B6803F05A
:102060000103012BDFD1002318461037BD4680BD88
:102070000000002083DE1B4380B584B000AF786091
:102080000023FB607B681B689B6803F00103012B46
:1020900027D17B681B689A687B681B6822F0010265
:1020A0009A60FFF7B9FBF86014E0FFF7B5FB024652
:1020B000FB68D31A022B0DD97B689B6A43F0100290
:1020C0007B689A627B68DB6A43F001027B68DA62B4
:1020D000012307E07B681B689B6803F00103012B69
:1020E000E3D0002318461037BD4680BD80B485B0CC
:1020F00000AF78607B6803F00703FB600C4BDB6884
:10210000BB60BA684FF6FF031340BB60FB681A025E
:10211000BB68134343F0BF6343F40033BB60044A1E
:10212000BB68D36000BF1437BD4680BC704700BF9A
:1021300000ED00E080B400AF044BDB681B0A03F045
:1021400007031846BD4680BC704700BF00ED00E0A5
:1021500080B483B000AF03463960FB7197F9073054
:10216000002B0ADB3B68DAB20C4997F90730120101
:10217000D2B20B4483F800230AE03B68DAB2084984
:10218000FB7903F00F03043B1201D2B20B441A7621
:1021900000BF0C37BD4680BC704700BF00E100E0C7
:1021A00000ED00E080B489B000AFF860B9607A60FB
:1021B000FB6803F00703FB61FB69C3F10703042B12
:1021C00028BF0423BB61FB690433062B02D9FB69DA
:1021D000033B00E000237B614FF0FF32BB6902FA52
:1021E00003F3DA43BB681A407B699A404FF0FF3132
:1021F0007B6901FA03F3D9437B680B40134318460C
:102200002437BD4680BC704780B582B000AF78608F
:102210007B68013BB3F1807F01D301230FE00A4AC1
:102220007B68013B53600F214FF0FF30FFF790FFB9
:10223000054B00229A60044B07221A6000231846BF
:102240000837BD4680BD00BF10E000E080B582B019
:1022500000AF78607868FFF749FF00BF0837BD46D8
:1022600080BD80B586B000AF0346B9607A60FB736D
:1022700000237B61FFF75EFF78617A68B96878694F
:10228000FFF790FF024697F90F3011461846FFF707
:102290005FFF00BF1837BD4680BD80B582B000AF7C
:1022A00078607868FFF7B0FF034618460837BD46E8
:1022B00080BD000080B48BB000AF7860396000232F
:1022C0007B6200233B6261E101227B6A02FA03F335
:1022D000FB613B681B68FA691340BB61BA69FB6923
:1022E0009A4240F050813B685B68974A93425ED0C7
:1022F000954A934275D8954A934258D0934A93424F
:102300006FD8934A934252D0914A934269D8914AE6
:1023100093424CD08F4A934263D88F4A934246D01F
:102320008D4A93425DD8122B2AD8122B59D801A27C
:1023300052F823F0AF230008892300089B230008EC
:10234000DD230008E3230008E3230008E32300085B
:10235000E3230008E3230008E3230008E323000845
:10236000E3230008E3230008E3230008E323000835
:10237000E3230008E323000891230008A5230008B5
:10238000764A934213D02CE03B68DB683B6229E03D
:102390003B68DB6804333B6224E03B68DB6808335E
:1023A0003B621FE03B68DB680C333B621AE03B6832
:1023B0009B68002B02D104233B6213E03B689B68BF
:1023C000012B05D108233B627B68FA691A6109E099
:1023D00008233B627B68FA695A6103E000233B6291
:1023E00000E000BFBB69FF2B01D87B6801E07B6880
:1023F00004337B61BB69FF2B02D87B6A9B0002E040
:102400007B6A083B9B003B617B691A680F213B6933
:1024100001FA03F3DB431A40396A3B6901FA03F31B
:102420001A437B691A603B685B6803F08053002B9A
:1024300000F0A9804A4B9B69494A43F0010393612C
:10244000474B9B6903F00103BB60BB68454A7B6A4D
:102450009B08023352F82330FB607B6A03F00303CE
:102460009B000F2202FA03F3DB43FA681340FB6080
:102470007B683D4A93420DD07B683C4A934207D02B
:102480007B683B4A934201D1022304E0032302E02C
:10249000012300E000237A6A02F0030292009340D5
:1024A000FA681343FB602F497B6A9B080233FA6882
:1024B00041F823203B685B6803F48033002B06D08F
:1024C0002C4B1A682B49BB6913430B6006E0294B60
:1024D0001A68BB69DB43274913400B603B685B68A4
:1024E00003F40033002B06D0224B5A682149BB6904
:1024F00013434B6006E01F4B5A68BB69DB431D4921
:1025000013404B603B685B6803F48013002B06D0DC
:10251000184B9A681749BB6913438B6006E0154B4B
:102520009A68BB69DB43134913408B603B685B6867
:1025300003F40013002B1FD00E4BDA680D49BB6962
:102540001343CB601FE000BF0000321000003110C9
:1025500000002210000021100000121000001110D5
:10256000001002400000014000080140000C014042
:1025700000100140000401400B4BDA68BB69DB43EB
:1025800009491340CB607B6A01337B623B681A6860
:102590007B6A22FA03F3002B7FF496AE00BF00BFE4
:1025A0002C37BD4680BC70470004014080B483B026
:1025B00000AF78600B467B8013467B707B78002BE6
:1025C00003D07A887B681A6103E07B881A047B68F1
:1025D0001A6100BF0C37BD4680BC704780B586B01D
:1025E00000AF78607B68002B01D1012372E27B6829
:1025F0001B6803F00103002B00F08780924B5B689F
:1026000003F00C03042B0CD08F4B5B6803F00C031E
:10261000082B12D18C4B5B6803F48033B3F5803FF9
:102620000BD1894B1B6803F40033002B6CD07B6803
:102630005B68002B68D101234CE27B685B68B3F5D3
:10264000803F06D1804B1B687F4A43F48033136080
:102650002EE07B685B68002B0CD17B4B1B687A4AB1
:1026600023F480331360784B1B68774A23F480236C
:1026700013601DE07B685B68B3F5A02F0CD1724B33
:102680001B68714A43F4802313606F4B1B686E4ACA
:1026900043F4803313600BE06B4B1B686A4A23F4EE
:1026A00080331360684B1B68674A23F480231360F0
:1026B0007B685B68002B13D0FFF7AEF8386108E049
:1026C000FFF7AAF802463B69D31A642B01D903230A
:1026D00000E25D4B1B6803F40033002BF0D014E0E4
:1026E000FFF79AF8386108E0FFF796F802463B6971
:1026F000D31A642B01D90323ECE1534B1B6803F479
:102700000033002BF0D100E000BF7B681B6803F0B2
:102710000203002B63D04C4B5B6803F00C03002BCF
:102720000BD0494B5B6803F00C03082B1CD1464BC4
:102730005B6803F48033002B16D1434B1B6803F016
:102740000203002B05D07B681B69012B01D00123FC
:10275000C0E13D4B1B6823F0F8027B685B69DB003E
:10276000394913430B603AE07B681B69002B20D08A
:10277000364B01221A60FFF74FF8386108E0FFF787
:102780004BF802463B69D31A022B01D90323A1E17E
:102790002D4B1B6803F00203002BF0D02A4B1B6863
:1027A00023F0F8027B685B69DB00274913430B6069
:1027B00015E0264B00221A60FFF72EF8386108E07A
:1027C000FFF72AF802463B69D31A022B01D90323EB
:1027D00080E11D4B1B6803F00203002BF0D17B68E6
:1027E0001B6803F00803002B3AD07B689B69002B21
:1027F00019D0174B01221A60FFF70EF8386108E074
:10280000FFF70AF802463B69D31A022B01D90323CA
:1028100060E10D4B5B6A03F00203002BF0D0012056
:1028200000F0C4FA1CE00A4B00221A60FEF7F4FF25
:1028300038610FE0FEF7F0FF02463B69D31A022B26
:1028400008D9032346E100BF0010024000004242C5
:1028500080044242924B5B6A03F00203002BE9D1F1
:102860007B681B6803F00403002B00F0A6800023A4
:10287000FB758B4BDB6903F08053002B0DD1884B2C
:10288000DB69874A43F08053D361854BDB6903F0F2
:102890008053BB60BB680123FB75824B1B6803F44C
:1028A0008073002B18D17F4B1B687E4A43F48073E2
:1028B0001360FEF7B1FF386108E0FEF7ADFF024696
:1028C0003B69D31A642B01D9032303E1754B1B68C1
:1028D00003F48073002BF0D07B68DB68012B06D1FA
:1028E0006F4B1B6A6E4A43F0010313622DE07B6855
:1028F000DB68002B0CD16A4B1B6A694A23F0010389
:102900001362674B1B6A664A23F0040313621CE0E0
:102910007B68DB68052B0CD1614B1B6A604A43F076
:10292000040313625E4B1B6A5D4A43F001031362AA
:102930000BE05B4B1B6A5A4A23F001031362584BAE
:102940001B6A574A23F0040313627B68DB68002B81
:1029500015D0FEF761FF38610AE0FEF75DFF024621
:102960003B69D31A41F28832934201D90323B1E083
:102970004B4B1B6A03F00203002BEED014E0FEF772
:102980004BFF38610AE0FEF747FF02463B69D31A66
:1029900041F28832934201D903239BE0404B1B6AEA
:1029A00003F00203002BEED1FB7D012B05D13C4B44
:1029B000DB693B4A23F08053D3617B68DB69002BE2
:1029C00000F08780364B5B6803F00C03082B61D066
:1029D0007B68DB69022B46D1334B00221A60FEF77D
:1029E0001BFF386108E0FEF717FF02463B69D31A68
:1029F000022B01D903236DE0294B1B6803F0007300
:102A0000002BF0D17B681B6AB3F5803F08D1244BC3
:102A10005B6823F400327B689B68214913434B6059
:102A20001F4B5B6823F474127B68196A7B685B6ACE
:102A30000B431B4913434B601B4B01221A60FEF7EB
:102A4000EBFE386108E0FEF7E7FE02463B69D31A69
:102A5000022B01D903233DE0114B1B6803F00073E7
:102A6000002BF0D035E0104B00221A60FEF7D4FEA8
:102A7000386108E0FEF7D0FE02463B69D31A022B0C
:102A800001D9032326E0064B1B6803F00073002BDB
:102A9000F0D11EE07B68DB69012B07D1012319E02F
:102AA0000010024000700040600042420B4B5B6827
:102AB000FB60FB6803F480327B681B6A9A4206D194
:102AC000FB6803F470127B685B6A9A4201D00123B1
:102AD00000E0002318461837BD4680BD00100240B4
:102AE00080B584B000AF786039607B68002B01D17D
:102AF0000123D0E06A4B1B6803F007033A689A424F
:102B000010D9674B1B6823F0070265493B681343E4
:102B10000B60634B1B6803F007033A689A4201D0CD
:102B20000123B8E07B681B6803F00203002B20D070
:102B30007B681B6803F00403002B05D0594B5B68CE
:102B4000584A43F4E06353607B681B6803F0080352
:102B5000002B05D0534B5B68524A43F460535360DB
:102B6000504B5B6823F0F0027B689B684D49134330
:102B70004B607B681B6803F00103002B40D07B682F
:102B80005B68012B07D1474B1B6803F40033002B14
:102B900015D101237FE07B685B68022B07D1414B95
:102BA0001B6803F00073002B09D1012373E03D4B38
:102BB0001B6803F00203002B01D101236BE0394BAA
:102BC0005B6823F003027B685B68364913434B6004
:102BD000FEF722FEF8600AE0FEF71EFE0246FB68E2
:102BE000D31A41F28832934201D9032353E02D4B8B
:102BF0005B6803F00C027B685B689B009A42EBD138
:102C0000274B1B6803F007033A689A4210D2244B03
:102C10001B6823F0070222493B6813430B60204BDB
:102C20001B6803F007033A689A4201D0012332E09F
:102C30007B681B6803F00403002B08D0194B5B680A
:102C400023F4E0627B68DB68164913434B607B68C2
:102C50001B6803F00803002B09D0124B5B6823F4B8
:102C600060527B681B69DB000E4913434B6000F028
:102C700021F802460B4B5B681B0903F00F030A495E
:102C8000CB5C22FA03F3094A1360094B1B68184610
:102C9000FEF780FD002318461037BD4680BD00BFFB
:102CA0000020024000100240F45D000800000020F7
:102CB0000400002090B48AB000AF294B3C1D0FCB1C
:102CC00084E80F0040F201233B800023FB610023D6
:102CD000BB6100237B6200237B6100233B62214BAD
:102CE0005B68FB61FB6903F00C03042B02D0082B2B
:102CF00003D02BE01C4B3B622BE0FB699B0C03F0E9
:102D00000F0328333B4413F8243C7B61FB6903F435
:102D10008033002B12D0134B5B685B0C03F0010374
:102D200028333B4413F8283CBB617B690E4A03FB04
:102D300002F2BB69B2FBF3F37B6204E07B690B4AEE
:102D400002FB03F37B627B6A3B6202E0064B3B6261
:102D500000BF3B6A18462837BD4690BC704700BF8D
:102D6000D45D00080010024000127A0000093D0006
:102D700080B400AF024B1B681846BD4680BC70474C
:102D80000000002080B500AFFFF7F2FF0246054BC0
:102D90005B68DB0A03F007030349CB5C22FA03F309
:102DA000184680BD00100240045E000880B485B063
:102DB00000AF78600A4B1B680A4AA2FB03235B0A38
:102DC0007A6802FB03F3FB6000BFFB685A1EFA60DF
:102DD000002BF9D100BF00BF1437BD4680BC70473F
:102DE00000000020D34D621080B586B000AF78603F
:102DF00000233B610023FB607B681B6803F0010339
:102E0000002B7DD00023FB754F4BDB6903F0805313
:102E1000002B0DD14C4BDB694B4A43F08053D361FF
:102E2000494BDB6903F08053BB60BB680123FB7532
:102E3000464B1B6803F48073002B18D1434B1B686F
:102E4000424A43F480731360FEF7E6FC386108E001
:102E5000FEF7E2FC02463B69D31A642B01D9032337
:102E60006DE03A4B1B6803F48073002BF0D0364BB7
:102E70001B6A03F44073FB60FB68002B2ED07B6859
:102E80005B6803F44073FA689A4227D02E4B1B6AA2
:102E900023F44073FB602E4B01221A602C4B00225E
:102EA0001A60294AFB681362FB6803F00103002BD8
:102EB00014D0FEF7B1FC38610AE0FEF7ADFC024623
:102EC0003B69D31A41F28832934201D9032336E099
:102ED0001D4B1B6A03F00203002BEED01A4B1B6A3A
:102EE00023F440727B685B68174913430B62FB7DD8
:102EF000012B05D1144BDB69134A23F08053D361B6
:102F00007B681B6803F00203002B08D00E4B5B6844
:102F100023F440427B689B680B4913434B607B68FA
:102F20001B6803F01003002B08D0074B5B6823F4E9
:102F300080027B68DB68044913434B60002318461A
:102F40001837BD4680BD00BF001002400070004031
:102F50004004424290B58DB000AF7860584B07F105
:102F60000C040FCB84E80F0040F201233B810023C7
:102F70007B620023FB6200233B620023FB61002392
:102F8000BB627B68102B0AD07B68102B00F28E800E
:102F90007B68012B49D07B68022B79D086E0494BB6
:102FA0005B68FB61474B1B6803F08073002B7FD08D
:102FB000FB699B0C03F00F0330333B4413F8243CB4
:102FC0003B62FB6903F48033002B17D03D4B5B68F9
:102FD0005B0C03F0010330333B4413F8283C7B6265
:102FE000FB6903F48033002B0DD0374A7B6AB2FBB8
:102FF000F3F23B6A02FB03F3FB6204E03B6A334AF1
:1030000002FB03F3FB622F4B5B6803F48003B3F511
:10301000800F02D1FB6ABB624AE0FB6A5B002C4A6C
:10302000A2FB03235B08BB6242E0264B1B6AFB61E9
:10303000FB6903F44073B3F5807F08D1FB6903F0AB
:103040000203002B03D04FF40043BB621FE0FB6977
:1030500003F44073B3F5007F09D11A4B5B6A03F0A8
:103060000203002B03D049F64043BB620FE0FB692B
:1030700003F44073B3F5407F1CD1124B1B6803F47B
:103080000033002B16D04FF22443BB6212E011E054
:10309000FFF778FE02460B4B5B689B0B03F00303C4
:1030A00001335B00B2FBF3F3BB6204E000BF02E05C
:1030B00000BF00E000BFBB6A18463437BD4690BD74
:1030C000E45D00080010024000127A0000093D0093
:1030D000ABAAAAAA002B2DE9F0471D46BBBF03F1FE
:1030E00000431D4600232D2388B01446B8BF144664
:1030F000129A109E1370149BDDF84CA023F0200848
:10310000B8F1460F05D0B8F1450F00D101360223C2
:1031100000E0032307AA049206AACDE902A2CDE9A2
:10312000003622462B4600F0F7FDB8F1470F074660
:1031300019D1119BDB070ED500EB060900220023F5
:1031400020462946FDF730FC08B1CDF81C9030220E
:10315000079B4B451ED33846079B159ADB1B136014
:1031600008B0BDE8F087B8F1460F00EB0609E5D1DD
:103170000378302B0AD10022002320462946FDF790
:1031800013FC18B9C6F10106CAF80060DAF800307D
:103190009944D3E7591C07911A70D9E7F7B500296C
:1031A000B6BF2D232B23494209290270437029DD24
:1031B0000DF107031D460A27B1FBF7F61A4607FB78
:1031C0001614303402F8014C0C46632C314603F1DE
:1031D000FF33F1DC3031941E03F8011C2346411CFF
:1031E000AB420AD30DF109039B1AAC4288BF0023FE
:1031F00002330344181A03B0F0BD13F8016B01F851
:10320000016FEDE7302330318370C170031DF1E7AA
:103210002DE9F04F91B00C46DDF8688016461F4648
:10322000054600F0DFFC036818460893FCF790FFA2
:1032300000230E93D8F800300990073323F00703DA
:1032400003F1080294F818A0D4F800B0C8F80020E0
:10325000D3E9008929F000430B93CDF828804FF083
:10326000FF32DDE90A01C4E912899C4BFDF7CEFB70
:1032700070BBDDE90A014FF0FF32984BFDF7A8FB68
:1032800030BB0022002340464946FDF797FB10B1B2
:103290002D2384F84330924A924BBAF1470F8CBFEA
:1032A0009046984603234FF0000923612BF0040356
:1032B000236033462146284600970FAA00F0D4F930
:1032C000013040F090804FF0FF3011B0BDE8F08F3A
:1032D00042464B4640464946FDF798FB48B14B46AF
:1032E000002BB8BF2D23804AB8BF84F843307F4BF2
:1032F000D3E763680AF0DF015A1C3FD106236360FD
:1033000000224BF48063236006920EAACDE904A24A
:103310000DAA03920DF13302CDE9013263684246F2
:10332000009328464B460A91FFF7D4FE0A9980463F
:1033300047290D9928D1C81C02DB6368994240DDFA
:10334000AAF1020A5FFA8AFA5246013904F15000E2
:103350000D91FFF723FF0E9A81461318012A23616E
:1033600002DC2268D20701D5013323619DF8333096
:10337000002B9ED02D2384F843309AE74729BFD1F4
:10338000002BBDD10123BAE7BAF1650FDCD9BAF140
:10339000660F18D1002963680BDD216113B922681B
:1033A000D00702D501330B4423614FF00009A1651A
:1033B000DCE713B92268D20701D50233F4E7012311
:1033C000F2E74FF0670A0E9B994205DB2368216103
:1033D000D807EAD54B1CE7E70029CCBF0122C1F191
:1033E00002021344E0E723685A0507D423694246E2
:1033F00031462846B84701302BD164E7BAF1650F52
:1034000040F2DC80D4E9120100220023FDF7CCFA5F
:10341000002833D0012331462846354AB8470130C9
:103420003FF451AFDDE90D38434502DB2368D8078F
:103430000FD5DDE9082331462846B84701303FF46F
:1034400042AF4FF0000908F1FF3804F11A0AC845ED
:1034500009DC23689B0700F10281E0680F9B98421A
:10346000B8BF184631E70123524631462846B847CF
:1034700001303FF428AF09F10109E8E70D9B002B6B
:1034800038DC012331462846194AB84701303FF459
:103490001AAFDDE90D3959EA030302D12368D907D0
:1034A000D7D5DDE9082331462846B84701303FF437
:1034B0000AAF4FF0000A04F11A0B0D9B5B42534513
:1034C00001DC4B4693E701235A4631462846B8476C
:1034D00001303FF4F8AE0AF1010AEEE7FFFFEF7F9B
:1034E000105E00080C5E0008185E0008145E0008FC
:1034F0001C5E0008A36DDDF838A05345A8BF5346F5
:10350000002B994636DC4FF0000B29EAE97904F1EB
:103510001A02A36D0A93A3EB09035B4531DC0D9BF3
:103520009A453ADC2368DA0737D40D9BAAEB0309E6
:103530000A9BAAEB03039945A8BF9946B9F1000F6E
:1035400033DC4FF0000829EAE97904F11A0B0D9BEE
:10355000AAEB0303A3EB090343457FF77AAF0123EB
:103560005A4631462846B84701303FF4ACAE08F120
:103570000108ECE7424631462846B8470130C2D13F
:10358000A1E60123314628460A92B84701303FF4AC
:103590009AAE0A9A0BF1010BBBE73146DDE908232D
:1035A0002846B8470130C0D18DE60A9A4B463146CD
:1035B00028464244B8470130C3D184E6DDF838A03C
:1035C000BAF1010F01DCDB0736D501234246314653
:1035D0002846B84701303FF476AEDDE9082331468E
:1035E0002846B84701303FF46EAED4E912010022FC
:1035F00000230AF1FF3AFDF7D7F9C0B9534608F1A5
:10360000010231462846B84701300CD15BE6012360
:103610005A4631462846B84701303FF454AE08F1C7
:103620000108D045F3DB4B4604F15002E0E64FF0D1
:10363000000804F11A0BF4E701234246E1E70123F5
:103640004A4631462846B84701303FF43CAE08F1BF
:103650000108E3680F995B1A4345F0DCFDE64FF083
:10366000000804F11909F4E72DE9F04716469846D9
:103670008A680B6907469342B8BF1346336091F8D6
:1036800043200C46DDF820900AB1013333602368F3
:10369000990642BF336802333360256815F006058A
:1036A00006D104F1190AE36832689B1AAB422BDC9D
:1036B00094F843302268003B18BF0123920630D4AF
:1036C0004146384604F14302C847013023D02368FD
:1036D000226903F00603042B14BF002533684FF062
:1036E000000608BFE56804F11A0408BFED1A54F893
:1036F000123C08BF25EAE5759342C4BF9B1AED183A
:10370000B5421AD1002008E001235246414638460E
:10371000C847013003D14FF0FF30BDE8F0870135D5
:10372000C1E73020E11881F843005A1C94F8451095
:103730002244023382F84310C2E701232246414665
:103740003846C8470130E6D00136D9E72DE9FF47B2
:103750000F7E9146782F80460C469A460C9E01F1CA
:10376000430207D8622F0AD8002F00F0D180582FCB
:1037700000F0B88004F1420684F842703AE0A7F104
:103780006303152BF6D801A151F823F0E5370008A3
:10379000F9370008753700087537000875370008D5
:1037A00075370008F93700087537000875370008C5
:1037B0007537000875370008F73800082338000807
:1037C000B138000875370008753700081939000846
:1037D000753700082338000875370008753700086A
:1037E000B938000833681A1D1B68326004F14206BC
:1037F00084F8423001239CE033682068191D316051
:10380000060601D51D6803E04506FBD5B3F9005057
:10381000002D03DA2D236D4284F843300A235848E3
:1038200011E021683368080653F8045B02D44906A6
:1038300048BFADB26F2F336014BF0A23082350482E
:10384000002184F843106668002EA66005DB21681D
:103850002E4321F0040121604BD01646B5FBF3F155
:1038600003FB1157C75D06F8017D2F46BB420D468D
:10387000F4D9082B0BD12368DF0708D523696168C9
:103880009942DEBF302306F8013C06F1FF36921B59
:1038900022614B4621464046CDF800A003AAFFF71F
:1038A000E3FE01304AD14FF0FF3004B0BDE8F087AD
:1038B000236843F0200323607827324884F845705A
:1038C000236831681F0651F8045B02D45F0648BFC5
:1038D000ADB23160D90744BF43F0200323601DB16E
:1038E0001023ADE72648E9E7236823F0200323608F
:1038F000F6E71646BDE733682568181D6169306034
:103900002E061B6801D5196002E06806FBD51980F8
:10391000002316462361BCE7336800211A1D32607C
:103920001E686268304600F061F908B1801B606073
:1039300063682361002384F84330AAE7324649468E
:1039400040462369D0470130ADD023689B0713D48C
:10395000E068039B9842B8BF1846A6E701233246A9
:1039600049464046D04701309DD00135E368039970
:103970005B1AAB42F2DCEBE7002504F11906F5E730
:103980001E5E00082F5E00080CB430B5184B0C1EEC
:103990001D689DB008DA8B234FF0FF302B601DB0FF
:1039A000BDE8304002B070474FF40273ADF81430F8
:1039B0004FF000031B930CBF234604F1FF33049325
:1039C00007934FF6FF7302900690ADF81630284625
:1039D00021AB209A02A9019300F0CEFF431CBCBF8B
:1039E0008B232B60002CDAD00022029B1A70D6E7C2
:1039F00018000020002310B50446C0E90033C0E9D8
:103A00000433836081814366C28183611946082241
:103A10005C3000F0B1F80D4B246263620C4BA36282
:103A20000C4BE3620C4B23630C4B9C4206D003F11E
:103A30006802944202D0D0339C4205D104F1580070
:103A4000BDE8104000F0CAB810BD00BF2155000805
:103A5000435500087B5500089F5500082C020020A4
:103A6000024A0349034800F069B800BF0C00002077
:103A7000C54D00081C00002041680C4B10B5994250
:103A8000044601D001F09EF9A168094B994202D089
:103A9000204601F097F9E168064B994204D0204690
:103AA000BDE8104001F08EB910BD00BF2C0200200F
:103AB00094020020FC02002010B50B4B0B4C0C4A6A
:103AC00020461A6004210022FFF794FF04F16800E9
:103AD00001220921FFF78EFF04F1D0000222BDE888
:103AE00010401221FFF786BF640300202C02002043
:103AF000613A0008014800F072B800BF6903002075
:103B0000014800F06DB800BF6903002010B50446FD
:103B1000FFF7F0FF236A1BB1BDE81040FFF7F0BFCD
:103B2000044B2362044B1B68002BF5D1FFF7C4FF45
:103B3000F2E700BF793A0008640300202DE9F8435A
:103B40000746884614460026D4E90195B9F10109D3
:103B500005D52468002CF7D13046BDE8F883AB8941
:103B6000012B07D9B5F90E30013303D02946384669
:103B7000C04706436835E9E703460244934200D153
:103B8000704703F8011BF9E7014B1868704700BF45
:103B90001800002070B500260C4D0D4C641BA410BD
:103BA000A64209D102F002F900260A4D0A4C641B14
:103BB000A410A64205D170BD55F8043B98470136C4
:103BC000EEE755F8043B98470136F2E78C610008B0
:103BD0008C6100088C610008906100087047704794
:103BE000704700000048704758010020034610B598
:103BF000C9B202449342184601D1002003E0047880
:103C000001338C42F6D110BD2DE9F74F03690C69E1
:103C10000746A3427EDB013CA30000F1140501F13D
:103C20001408009305EB8403019358F8243055F8E9
:103C3000242001339A42B2FBF3F608EB84092ED319
:103C40004FF0000AC446AE46D3465CF8043B98B237
:103C500006FB00A01B0C020C06FB0323DEF8002071
:103C600080B292B2121A5A44DEF800004FEA134AA8
:103C70009BB2C3EB224303EB104392B242EA0342EE
:103C8000E1454FEA234B4EF8042BDED2009BEB5864
:103C90002BB9019B043B9D421A462FD33C61384609
:103CA00001F036FB002825DB2946002058F8042BBC
:103CB000D1F800C01FFA82FE1FFA8CF3A3EB0E03AB
:103CC0000344120CC2EB234202EB1C429BB243EAB8
:103CD0000243C1454FEA224041F8043BE6D255F881
:103CE000242005EB840322B9043B9D421A460BD3E2
:103CF0003C610136304603B0BDE8F08F1268043BEA
:103D0000002ACBD1013CC6E71268043B002AEFD160
:103D1000013CEAE70020EEE72DE9F04F14461D468E
:103D2000C76997B08146CDE90645239E7FB910202B
:103D300000F01EFF0246C9F81C0020B9EF21AC4B71
:103D4000AC4801F0DDFCC0E901770760C760D9F835
:103D50001C30196859B15A68012393404A608B603E
:103D6000484601F0A3F80022D9F81C301A602B1E37
:103D7000AFBF0023012223F000430793A8BF3360A5
:103D8000DDF81C809C4BB8BF326033EA080312D1C7
:103D900042F20F73229A1360C8F31303234300F017
:103DA0005E85249BDFF854A2002B00F060850AF1A9
:103DB000030300F05ABDDDE90623CDE90C23DDE95C
:103DC0000C0100220023FCF7EFFD074658B1012348
:103DD000229A1360249B13B1894B249A1360DFF855
:103DE00024A200F044BD14AB019315AB00934846E8
:103DF000DDE90C2301F03CFBC8F30A560390002ECA
:103E000078D0DDE90C010D9BA6F2FF36C3F3130356
:103E100043F07F5343F440131297194600227A4B24
:103E2000FCF7A2F96CA3D3E90023FCF755FB6CA3C4
:103E3000D3E90023FCF79AF9044630460D46FCF717
:103E4000E1FA69A3D3E90023FCF746FB02460B46DF
:103E500020462946FCF78AF904460D46FCF7ECFD9E
:103E600000220746002320462946FCF7A7FD40B163
:103E70003846FCF7C7FA22462B46FCF795FD00B9F9
:103E8000013F162F54D8DDE90C01604B03EBC7034B
:103E9000D3E90023FCF792FD00284BD00023013F1B
:103EA0000F93149B9B1B5A1E49BFC3F101030023B0
:103EB00004930023099254BF04930993002F3BDB22
:103EC000099B0E973B44099300230A93209B092BDF
:103ED00065D8052BC4BF043B2093209BC8BF00249A
:103EE000A3F10203D8BF0124032B64D8DFE803F059
:103EF0005355382CDDE914631E4406F23243202B5F
:103F0000C1BFC3F1400308FA03F806F2124324FAD2
:103F100003F3D6BFC3F1200348EA030004FA03F019
:103F2000FCF760FA0122A1F1F873013E129274E7E6
:103F30000123B5E70F90B4E7049BDB1B04937B429E
:103F40000A9300230E93C1E701230B93219B07EBF8
:103F5000030B0BF10103012B0893B8BF012306E00B
:103F600001230B93219B002B28DD9B460893002106
:103F70000422D9F81C0002F114059D4226D94160A3
:103F8000484600F053FF8246002843D1024640F2E3
:103F9000AF111F4BD4E60023E3E70023D5E701244C
:103FA00000230B9420934FF0FF3B00221223CDF807
:103FB00020B02192DBE701230B93F4E74FF0010BD4
:103FC0005B46CDF820B0CDF884B0D0E70131520087
:103FD000D1E700BFAFF3008061436F63A787D23F93
:103FE000B3C8608B288AC63FFB799F501344D33FE8
:103FF0004D5E0008645E00080000F07F495E000826
:104000001D5E00081C5E00080000F83FB85F000855
:10401000BC5E0008D9F81C301860089B0E2B00F21B
:10402000A180002C00F09E80002F33DD9C4B07F018
:104030000F0203EBC203F805D3E90034CDE91034D5
:104040004FEA271416D5DDE90C01964B0326D3E978
:104050000823FCF76BFBCDE9060104F00F04914D3A
:1040600054B9DDE91023DDE90601FCF75FFBCDE97A
:10407000060128E00226F2E7E10708D5DDE9100194
:10408000D5E90023FCF728FACDE9100101366410C8
:104090000835E5E700F0AF80DDE90C017C42804B9C
:1040A00004F00F0203EBC203D3E90023FCF714FA78
:1040B00002260023CDE906017A4D2411002C40F0A0
:1040C0008F80002BD3D1DDE906450F9B002B00F03C
:1040D0009480002220462946734BFCF76FFC002891
:1040E00000F08B80089B002B00F08780BBF1000F55
:1040F00034DD2046002229466C4BFCF7EDF95C4686
:10410000CDE9060107F1FF3801363046FCF77AF9B0
:10411000DDE90623FCF7E0F90022654BFCF726F801
:104120000546A1F15076002C6AD1DDE90601002296
:10413000604BFCF719F802460B46CDE906232A46E8
:104140003346FCF759FC002840F09882DDE906016F
:104150002A4606F10043FCF731FC38BBDDE90C349C
:10416000CDE90634159B002BC0F257810E2F00F3CA
:1041700054814B4B03EBC703D3E90034CDE904343E
:10418000219B002B80F2E580089B002B00F3E1804F
:104190000CD1DDE904010022464BFCF79DF9DDE975
:1041A0000623FCF71FFC002800F066820024254649
:1041B000219B56466FEA030800272146484600F037
:1041C00075FE002D00F0BD802FB1AF4203D03946FF
:1041D000484600F06BFE2946484600F067FEB0E016
:1041E000E20705D5D5E90023FCF776F9012301366E
:1041F0006410083562E7022665E7B846089C84E744
:10420000274B0B9903EBC40353E9022354440029C1
:1042100054D000202849FCF789FA33462A46FBF798
:10422000A3FF5646CDE91001DDE90601FCF704FCC9
:104230000546FCF7E7F802460B46DDE90601FBF709
:1042400093FF02460B463035CDE90623DDE9102306
:1042500006F8015BFCF7B2FB002872D1DDE906230A
:1042600000201149FBF780FFDDE91023FCF7A6FBD6
:10427000002840F0B480A6423FF470AFDDE91001A1
:1042800000220A4BFCF728F90022CDE91001DDE9F4
:104290000601064BFCF720F9CDE90601C4E700BF93
:1042A000B85F0008905F00080000F03F0000244065
:1042B00000001C40000014400000E03F314628464A
:1042C000FCF70AF95646CDE910011394DDE9060121
:1042D000FCF7B2FB0546FCF795F802460B46DDE914
:1042E0000601FBF741FF02460B46303506F8015B3D
:1042F000A642CDE906234FF0000224D1DDE91001EA
:10430000AE4BFBF733FF02460B46DDE90601FCF737
:1043100073FB002863D1DDE910230020A749FBF7D8
:1043200023FF02460B46DDE90601FCF747FB0028A8
:104330003FF414AF139E731E139316F8013C302BF9
:10434000F8D047463BE09E4BFCF7C6F8CDE90601A6
:10435000BCE75646DDE90645DDE90423204629464B
:10436000FCF7E4F9FCF768FB8046FCF74BF8DDE965
:104370000423FCF7B1F802460B4620462946FBF71A
:10438000F3FE08F13004089D06F8014BA6EB0A0481
:10439000A54202460B4633D1FBF7E8FEDDE90423D4
:1043A00004460D46FCF728FBC0B9DDE9042320468E
:1043B0002946FCF7F9FA10B118F0010F0ED1484662
:1043C000039900F073FD00233370229B01371F60B7
:1043D000249B002B00F04B821E6048E2B846334617
:1043E0001E4613F8012D392A06D19A45F8D13022FC
:1043F00008F101088AF800201A7801321A70A0E743
:1044000000226F4BFCF768F80022002304460D469B
:10441000FCF7CAFA00289FD0D1E70B9A002A00F0D7
:10442000EA80209A012A00F3CD80129A002A00F037
:10443000C18003F233430A9C049E049A01211A446A
:104440000492099A48461A44099200F0E3FD054691
:1044500066B1099B002B09DDB342A8BF3346049A1D
:10446000F61AD21A0492099AD31A09930A9B0BB32B
:104470000B9B002B00F0C680002C00F0C08029466A
:104480002246484600F07EFE039A0146054648460D
:1044900000F0D6FD03998046484600F007FD0A9BD0
:1044A0001B1B0A9300F0B18041460A9A484600F06F
:1044B00069FE03900121484600F0ACFD0E9B0446C6
:1044C000002B00F0D8811A460146484600F05AFEFB
:1044D000209B0446012B00F39F80069B002B40F09D
:1044E0009780079BC3F31303002B40F09380079B37
:1044F00023F000431B0D1B0533B1049B01330493D0
:10450000099B0133099301230A930E9B002B00F0B2
:10451000B881236904EB8303186900F02FFDC0F113
:104520002000099B184410F01F0000F08280C0F1A9
:104530002003042B73DD049BC0F11C00034404938F
:10454000099B064403440993049B002B05DD1A468E
:104550004846039900F070FE0390099B002B05DD8F
:1045600021461A46484600F067FE04460F9B002B82
:1045700061D02146039800F0CBFE00285BDA0023CF
:104580000A224846039900F0B3FC0B9B07F1FF3861
:104590000390002B00F07781294600230A22484629
:1045A00000F0A6FCBBF1000F05466FDC209B022B40
:1045B00049DC6BE0149BC3F136033CE70000E03FAD
:1045C00000002440089B5C1E0A9BA34209DB1C1BC5
:1045D000089B002BBFF630AF049B089A9E1A00235D
:1045E0002BE70A9B0E9AE31A1A440A94049E0024AD
:1045F000089B0E9221E70A9C049E0B9D28E7DDF89C
:104600000C8051E70A9A039950E7CDF80C8051E7E6
:10461000002379E7069B77E700230A9379E793D095
:10462000049A1C331A440492099A1E441A440992AB
:104630008AE70346F4E7089BB846002B20DC9B463C
:10464000209B022B1EDDBBF1000F7FF4B1AD214694
:104650005B460522484600F04BFC014604460398A1
:1046600000F056FE00287FF7A3AD5646312308F12F
:10467000010806F8013B9FE5B846089C2546F4E78B
:10468000DDF820B00B9B002B00F00181002E05DD32
:1046900029463246484600F0CFFD05460A9B002BCE
:1046A0005CD04846696800F0C1FB064628B902465E
:1046B00040F2EF21804BFFF743BB2A6905F10C0163
:1046C000023292000C3001F00DF8012231464846CA
:1046D00000F0B2FD2F4605460AF1010304930AEBF0
:1046E0000B030A93069B03F001030993049B2146E5
:1046F000039803F1FF3BFFF787FA0346394630334F
:10470000069003980B9300F003FE2A46089021467A
:10471000484600F019FEC26806460B9B02BB0146E4
:10472000039800F0F5FD02460B9B31464846CDE963
:104730000B3200F0BBFB209B0C9A049E42EA030163
:10474000099B19430B9B0DD1392B27D0089A002ABE
:1047500001DD069B31338BF800302EE52846B9E7A2
:104760000122E2E70899002904DB20980143099817
:10477000014320D1002AEEDD01220399484604932B
:1047800000F05AFD2146039000F0C2FD0028049B72
:1047900002DCE0D1DA07DED5392BDAD139238BF808
:1047A000003033461E4616F8012C013B392A4ED004
:1047B00001321A7001E5002A03DD392BEED00133F6
:1047C000C9E7049A0A9902F8013C8A4228D00023DA
:1047D0000A220399484600F08BFBAF4203904FF04A
:1047E00000034FF00A023946484607D100F080FB2B
:1047F00007460546049B0133049377E700F078FBF6
:104800002946074600230A22484600F071FB054668
:10481000F0E7BBF1000FCCBF5E46012600275644EF
:10482000012203994846049300F006FD21460390B7
:1048300000F06EFD0028B4DC02D1049BDB07B0D48D
:1048400033461E4613F8012D302AFAD0B5E49A45B6
:10485000A8D1312308F101088AF80030ADE4249B87
:10486000DFF858A01BB10AF10803249A13605046E0
:1048700017B0BDE8F08F209B012B7FF72EAE0E9B6B
:104880000A9301204DE6BBF1000F7FF7D9AE5646E3
:1048900021460398FFF7B8F900F1300306F8013B11
:1048A000A6EB0A029345B4DD00230A224846039989
:1048B00000F01EFB0390EBE7BC5E0008405E0008C2
:1048C0002DE9F0471F468E688246BE420C46904650
:1048D0000B682DD8B1F90C2012F4906F26D06569C1
:1048E000096905EB4505A3EB010905EBD5757B1CB3
:1048F0004B446D109D4238BF1D46530527D52946B0
:1049000000F060F9064660B34A46216900F0EAFE0D
:10491000A38923F4906343F08003A38126614E446E
:1049200026603E466561A5EB0905A560BE4200D93B
:104930003E4632464146206800F063FE0020A368F0
:104940009B1BA360236833442360BDE8F0872A469D
:1049500000F029FE06460028E0D15046216900F00B
:1049600001FF0C23CAF80030A3894FF0FF3043F059
:104970004003A381E9E700002DE9F04F98468B89B9
:1049800007461B060D4614469DB010D50B6973B93A
:10499000402100F017F92860286130B90C233B60F2
:1049A0004FF0FF301DB0BDE8F08F40236B61002356
:1049B000099320238DF8293030234FF00109CDF8D9
:1049C0000C80DFF898818DF82A3023469A4613F838
:1049D000012B0AB1252AF9D1BAEB040B0BD05B46A7
:1049E000224629463846FFF76BFF013000F0A780CA
:1049F000099A5A4409929AF80030002B00F09F80DF
:104A000000234FF0FF32CDE905230AF1010A049398
:104A100007938DF853301A935446052214F8011B5E
:104A20004E48FFF7E3F8049AD8B9D00644BF2023D4
:104A30008DF85330110744BF2B238DF853309AF86B
:104A400000302A2B15D0544600204FF00A0C079A4C
:104A5000214611F8013B303B092B4BD9B0B10792ED
:104A600014E0A0EB080309FA03F31343A2460493EE
:104A7000D2E7039B191D1B680391002BBBBF5B4250
:104A800042F0020207930793B8BF049223782E2BBB
:104A90000AD163782A2B32D1039B02341A1D1B687A
:104AA000039243EAE3730593DFF8B4A00322504670
:104AB0002178FFF79BF838B14022049BA0EB0A0055
:104AC000824013430134049314F8011B0622254845
:104AD0008DF82810FFF78AF8002836D0224B1BBB30
:104AE000039B073323F0070308330393099B3344E5
:104AF00009936AE70C4601200CFB0232A8E7002369
:104B00004FF00A0C194601340593204610F8012B8A
:104B1000303A092A03D9002BC6D00591C4E70446D0
:104B200001230CFB0121F0E703AB00932A46384632
:104B30000E4B04A9FEF76CFB421C0646D6D1AB898E
:104B40005B063FF52DAF09982CE703AB00932A468F
:104B50003846064B04A9FEF7F9FDEDE7CD5E0008E7
:104B6000D35E0008D75E000811320008C148000873
:104B7000024B0146186800F025B800BF180000205D
:104B800070B50F4E0C463168054611B900F078FD3E
:104B900030602146284600F073FD431C03D14FF0DE
:104BA000FF34204670BDC41C24F00304A042F8D09A
:104BB000211A284600F064FD0130F2D1EFE700BF72
:104BC0006C0300202DE9F843CD1C25F003050835C2
:104BD0000C2D38BF0C25002D064601DBA94204D957
:104BE0000C2333600020BDE8F883DFF8D48000F0A8
:104BF00011F9D8F800301C4644BB29463046FFF76F
:104C0000BFFF431C044658D1D8F800402746002F68
:104C100043D1002C4BD023683946304604EB0309BE
:104C200000F02EFD814542D1216830466D1A29469B
:104C3000FFF7A6FF01303AD023682B442360D8F851
:104C400000305A6862BBC8F800700FE02268521B3F
:104C500020D40B2A17D96119A342256018BF5960C7
:104C6000636808BFC8F8001062514B60304600F01E
:104C7000D7F804F10B00231D20F00700C21A1CBF57
:104C80001B1AA350AFE76268A3420CBFC8F800200C
:104C90005A60EBE723466468AEE73C467F68B6E7B8
:104CA0001A465B68A342FBD100235360DEE70C2366
:104CB0003046336000F0B4F894E70560D6E700BFF3
:104CC00070030020B1F90C20F8B5160705460C4614
:104CD00054D44B68002B02DC0B6C002B48DDE66AD9
:104CE000002E45D0002312F480522F68216A2B60D9
:104CF00030D0626DA389590705D56368D21A636BFA
:104D00000BB1236CD21A00232846E66A216AB04709
:104D1000431CA38906D129681D292BD8284ACA40DB
:104D2000D60727D5002262602269D904226004D503
:104D3000421C01D12B6803B96065616B2F60B9B16A
:104D400004F14403994202D0284600F00BFD0023F1
:104D500063630DE001232846B0470246501CC9D1C9
:104D60002B68002BC6D01D2B01D0162B1DD12F6018
:104D7000002021E043F040031BB21AE00F69002F2E
:104D8000F6D0930718BF00230E6808BF4B69F61BC7
:104D90000F608B60002EEBDD33463A462846216AD1
:104DA000D4F828C0E047002807DCB4F90C3043F001
:104DB00040034FF0FF30A381F8BD0744361AE9E7FE
:104DC0000100402038B50B6905460C4613B9002593
:104DD000284638BD18B1036A0BB9FEF797FEB4F93F
:104DE0000C30002BF3D0626ED00704D4990502D4A6
:104DF000A06DFEF7F4FE28462146FFF763FF636EC1
:104E00000546DA07E4D4A3899B05E1D4A06DFEF73B
:104E1000E7FEDDE70148FEF7E2BE00BF68030020C1
:104E20000148FEF7DDBE00BF6803002070B5C6690B
:104E300004460D4676B91020FFF79AFE0246E0615F
:104E400020B96B21174B184800F05AFCC0E90166E5
:104E50000660C660E669F36883B1E369DB6853F80E
:104E60002500B8B9012101FA05F6721D204692000D
:104E700000F064FC60B1C0E901560EE0212204217B
:104E8000204600F05BFCE369F060DB68002BE4D1B6
:104E9000002070BD026843F825200023C0E90333D9
:104EA000F7E700BF4D5E0008DE5E000870B5C6691A
:104EB00005460C4676B91020FFF75AFE0246E86117
:104EC00020B98F21084B094800F01AFCC0E901669F
:104ED0000660C6603CB1EB696268DB6853F822107B
:104EE000216043F8224070BD4D5E0008DE5E000880
:104EF0002DE9F04107460C461E4600200D6901F1E0
:104F0000140CDCF80030013099B202FB01611E0C78
:104F10000B0C02FB063389B201EB034185424FEAD9
:104F200013464CF8041BECDC0EB3A368AB4219DC4F
:104F3000616838460131FFF779FF804628B902469B
:104F4000BA210C4B0C4800F0DBFB226904F10C0188
:104F5000023292000C3000F0C5FB21463846FFF7C4
:104F6000A5FF444604EB850301355E6125612046BB
:104F7000BDE8F081BC5E0008DE5E00080346B0F5C7
:104F8000803F3ABF030410200020B3F1807F3CBF74
:104F90001B020830B3F1805F3CBF1B010430B3F14A
:104FA000804F3CBF9B000230002B05DB13F0804F8D
:104FB00000F1010008BF202070470368024613F08B
:104FC00007000BD0D90721D4980749BF5B089B087D
:104FD000012013605CBF02201360704799B209B9C9
:104FE00010201B0CD9B209B908301B0A190704BFDD
:104FF0001B090430990704BF9B080230D90703D46A
:105000005B0800F1010003D0136070470020704777
:105010002020704710B50C460121FFF707FF02461C
:1050200028B940F24511044B044800F069FB012304
:105030004461036110BD00BFBC5E0008DE5E000875
:105040002DE9F04F17460A693B6989469A42A2BF8B
:105050003B460F4699463D69D9F810A0BB68796870
:1050600005EB0A06B34285B0B8BF0131FFF7DEFE9B
:1050700030B902464FF4B171404B414800F040FB5B
:1050800000F114042346002204EB860E734520D35E
:1050900007F1140809F1140108EB850501EB8A03F7
:1050A0000293EB1B153B23F0030304331537BD427A
:1050B00038BF04230193029B03918B420CD8002E2E
:1050C00003DD5EF8043D002B55D0066105B0BDE858
:1050D000F08F43F8042BD9E7B1F800A0BAF1000F24
:1050E0001FD0C446A14600275CF8042BD9F8003035
:1050F0001FFA82FB9BB20AFB0B333B44D9F80070CA
:10510000120C3F0C0AFB027202EB13429BB243EA01
:10511000024365454FEA124749F8043BE4D8019B36
:10512000E750039B0431B3F80290B9F1000F20D08F
:105130004746A4464FF0000A2368B7F800B0BCF811
:1051400002209BB209FB0B22524443EA02434CF873
:10515000043B57F8043B4FEA134ABCF80030BD4209
:1051600009FB0A3303EB12434FEA134AE5D8019ACD
:10517000A35004349FE7013EA1E700BFBC5E0008D6
:10518000DE5E00082DE9F843154612F003020746DB
:105190000E4607D0254C013A002354F82220FFF791
:1051A000A7FE0646AD103DD0FC697CB91020FFF784
:1051B000DFFC0246F86128B940F2B3111C4B1D48D0
:1051C00000F09EFAC0E901440460C460D7F81C8076
:1051D000D8F808404CB940F271213846FFF71AFF61
:1051E00000230446C8F8080003604FF00009EB07ED
:1051F0000AD5314622463846FFF722FF804631461F
:105200003846FFF753FE46466D100BD0206838B97C
:10521000224621463846FFF713FF2060C0F8009071
:105220000446E4E73046BDE8F88300BF805F00082D
:105230004D5E0008DE5E00082DE9F0470C4607468B
:1052400091462369496803EB6218A3684FEA621A22
:1052500008F10106B3420BDB3846FFF7E7FD0546D0
:1052600048B902464FF4EF71274B284800F048FA3E
:1052700001315B00EEE7002300F1140100F11002A0
:105280001846534533DB20692AEAEA7A04F114030D
:1052900019F01F0901EB8A0103EB800C2BD08A4621
:1052A0000022C9F1200E186800FA09F010434AF8EC
:1052B000040B53F8042B9C4522FA0EF2F3D8ACEB06
:1052C0000403153B23F00303043304F11500604588
:1052D00088BF0423CA500AB108F10206013E3846CD
:1052E00021462E61FFF7E2FD2846BDE8F08742F82F
:1052F000040F0133C5E7043953F8042B9C4541F8EA
:10530000042FF9D8EAE700BFBC5E0008DE5E0008A3
:1053100003460A69006930B5801A0ED1143314317E
:1053200003EB820401EB820154F8045D51F8042D73
:10533000954203D005D24FF0FF3030BDA342F3D3E6
:10534000FBE70120F9E700002DE9F74F8946064603
:10535000114648461446FFF7DBFF051E12D12946C9
:105360003046FFF763FD024628B940F237213E4B35
:105370003E4800F0C5F90123C0E90435104603B0EA
:10538000BDE8F08FBCBF4B46A1463046D9F80410AB
:10539000BABF1C4601250025FFF748FD024618B993
:1053A00040F24521304BE3E700F1140BD9F81070BF
:1053B00009F11003C5604FF0000C09F11405D9463E
:1053C000266904F1140E05EB87080EEB860601939F
:1053D000019B5EF8040B53F804AF81B201931FFAEE
:1053E0008AF35B1A000C6344C0EB1A4000EB2340C5
:1053F0009BB243EA004376454FEA204C49F8043B10
:10540000E6D8331B153B23F0030315340433A642BF
:1054100038BF04231D445B441E462C4644450ED32E
:1054200008F10301491B21F00301033DA84538BFE2
:1054300000210B4453F8041D99B117619EE7E6461D
:1054400054F8041B1FFA81FCF444080C714400EB6F
:105450002C4089B241EA00414FEA204C46F8041B37
:10546000DCE7013FE6E700BFBC5E0008DE5E000847
:105470002DE97343012190469946089EFFF7D6FC1B
:10548000044630B9024640F20F31234B234800F066
:1054900037F9C9F30A55C9F313030DB143F4801367
:1054A0000193B8F1000324D068460093FFF785FD0F
:1054B000DDE90012D8B1C0F1200302FA03F30B4377
:1054C000C24063610192019B002B0CBF01220222AA
:1054D000A3612261ADB1A5F2334505443560C0F149
:1054E0003500099B1860204602B0BDE870836161F9
:1054F000E9E701A8FFF761FD019B0122636120300C
:10550000E7E7A0F2324004EB820330601869FFF74E
:1055100035FDC0EB4210E4E7BC5E0008DE5E00082B
:1055200010B50C46B1F90E1000F098F80028ABBF8A
:10553000636DA3891B1823F48053ACBF6365A381FB
:1055400010BD2DE9F0411F468B890546DB050C4651
:10555000164605D502230022B1F90E1000F06CF8B2
:10556000A389324623F48053A38128463B46B4F9ED
:105570000E10BDE8F04100F093B810B50C46B1F93B
:105580000E1000F059F8431CA38915BF606523F481
:10559000805343F48053A38118BFA38110BDB1F998
:1055A0000E1000F08FB82DE9F041074614460D4665
:1055B00021B91146BDE8F041FFF704BB2AB900F05C
:1055C000D1F825462846BDE8F08100F025F984424F
:1055D000064602D8B4EB500FF4D821463846FFF700
:1055E000F1FA804608B94546ECE7B442224629461E
:1055F00028BF324600F076F82946384600F0B2F867
:10560000F1E7884210B501EB020402D98442234637
:1056100007D8431EA14208D011F8012B03F8012F2F
:10562000F8E7014602448A4200D110BD13F8014D4B
:1056300002F8014DF7E7000038B504460846114668
:105640000022054D2A601A46FBF7F1FF431C02D1E8
:105650002B6803B1236038BD7403002038B50446BD
:10566000084611460022054D2A601A46FBF782FFC4
:10567000431C02D12B6803B1236038BD74030020A2
:1056800038B50023054D044608462B60FBF7DCFFC8
:10569000431C02D12B6803B1236038BD7403002082
:1056A00038B50446084611460022054D2A601A46C0
:1056B000FBF77DFF431C02D12B6803B1236038BD8B
:1056C0007403002038B50023054D044608462B60BE
:1056D000FBF789FF431C02D12B6803B1236038BD5F
:1056E000740300200A44914200F1FF3300D1704757
:1056F00010B511F8014B914203F8014FF9D110BDDB
:105700001FB514461A46094B05461B68D8684CB1AC
:10571000074BCDE9013400912B46064900F084F88F
:1057200000F0A1F8044B1C46F3E700BF180000206E
:10573000415F00084E5F00087C5F000870B5A1FB68
:10574000025434B92946FFF73DFA064628B93046D7
:1057500070BD0C2200260260F9E72A462146FEF7BA
:105760000BFAF4E738B50546002940D051F8043C5F
:105770000C1F002BB8BFE418FFF74CFB1C4A136842
:1057800033B9636014602846BDE83840FFF748BB72
:10579000A34208D9206821188B4201BF19685B68B1
:1057A00009182160EDE71A465B680BB1A342FAD9EC
:1057B00011685018A0420BD1206801445018834250
:1057C0001160E0D118685B68084410605360DAE744
:1057D00002D90C232B60D6E7206821188B4201BF29
:1057E00019685B680918216063605460CBE738BDB5
:1057F0007003002082B001B901A942B14BB1137806
:105800000B601278101E18BF012002B070471046BE
:10581000FBE76FF00100F8E751F8043C181F002B7C
:10582000BCBF0B58C01870470EB403B5014603AB9C
:10583000054853F8042B0068019300F043F802B0C8
:105840005DF804EB03B070471800002003460846DB
:1058500041B1FF2A04D98A224FF0FF301A60704705
:1058600001200A707047062008B500F061FA012097
:10587000FBF775FE936810B4013B002B936007DAC9
:105880009469A34201DB0A2902D110BC00F032B9AD
:105890001368581C10601970084610BC7047F8B5A2
:1058A00006460F461446D518AC4201D1002007E049
:1058B0003A46304614F8011BFFF7DCFF431CF3D1D6
:1058C000F8BD00002DE9F04F0D46144698460646F7
:1058D0009DB018B1036A0BB9FEF718F96B6ED907C2
:1058E00005D4AB899A0502D4A86DFEF778F9AB8987
:1058F0001B0701D52B699BB92946304600F038F9C2
:1059000070B16B6EDC0704D54FF0FF301DB0BDE801
:10591000F08FAB899805F7D4A86DFEF761F9F3E72E
:105920000023099320238DF8293030234FF00109FB
:10593000CDF80C80DFF8A8818DF82A3023469A46EE
:1059400013F8012B0AB1252AF9D1BAEB040B0BD0BD
:105950005B46224629463046FFF7A1FF013000F0A2
:10596000A780099A5A4409929AF80030002B00F057
:105970009F8000234FF0FF32CDE905230AF1010A91
:10598000049307938DF853301A935446052214F864
:10599000011B5348FEF72AF9049AD8B9D10644BF2F
:1059A00020238DF85330130744BF2B238DF8533039
:1059B0009AF800302A2B15D0544600204FF00A0CDC
:1059C000079A214611F8013B303B092B4BD9B0B166
:1059D000079214E0A0EB080309FA03F31343A2466D
:1059E0000493D2E7039B191D1B680391002BBBBFD7
:1059F0005B4242F0020207930793B8BF04922378F8
:105A00002E2B0AD163782A2B32D1039B02341A1D24
:105A10001B68039243EAE3730593DFF8C8A00322EF
:105A200050462178FEF7E2F838B14022049BA0EB03
:105A30000A00824013430134049314F8011B062228
:105A400029488DF82810FEF7D1F800283FD0274BC1
:105A50001BBB039B073323F0070308330393099B06
:105A60003B4409936AE70C4601200CFB0232A8E78D
:105A700000234FF00A0C194601340593204610F814
:105A8000012B303A092A03D9002BC6D00591C4E76F
:105A9000044601230CFB0121F0E703AB00932A46E7
:105AA0003046134B04A9FDF7B3FB0746781CD6D14B
:105AB0006B6ED90705D4AB899A0502D4A86DFEF7A1
:105AC0008FF8AB895B063FF51FAF09981EE703AB64
:105AD00000932A463046064B04A9FDF737FEE4E75B
