:020000040800F2
:10000000002800207D100008750E00087D0E0008F5
:10001000850E00088D0E0008950E000800000000F7
:100020000000000000000000000000009D0E00081D
:10003000A90E000800000000B50E0008C10E00085F
:10004000C5100008C5100008C5100008C51000083C
:10005000C5100008C5100008C5100008C51000082C
:10006000C5100008C5100008C5100008C51000081C
:10007000C5100008C5100008C5100008C51000080C
:10008000C5100008C5100008C5100008C5100008FC
:10009000C5100008C5100008C5100008C5100008EC
:1000A000C5100008C5100008C5100008C5100008DC
:1000B000C5100008C510000800000000C5100008A9
:1000C000C51000080000000000000000C510000876
:1000D00000000000C5100008C51000080000000066
:1000E000C5100008C5100008C51000080000000079
:1000F0000000000000000000000000000000000000
:0C01000000000000000000005FF808F1A3
:1001100010B5054C237833B9044B13B10448AFF341
:1001200000800123237010BD5C000020000000004F
:10013000AC2C000808B5034B1BB103490348AFF3CF
:10014000008008BD0000000060000020AC2C00080A
:1001500081F0004102E000BF83F0004330B54FEA78
:1001600041044FEA430594EA050F08BF90EA020FE5
:100170001FBF54EA000C55EA020C7FEA645C7FEA78
:10018000655C00F0E2804FEA5454D4EB5555B8BF9B
:100190006D420CDD2C4480EA020281EA030382EA0C
:1001A000000083EA010180EA020281EA0303362D9E
:1001B00088BF30BD11F0004F4FEA01314FF4801C71
:1001C0004CEA113102D0404261EB410113F0004F83
:1001D0004FEA03334CEA133302D0524263EB43033A
:1001E00094EA050F00F0A780A4F10104D5F1200ED8
:1001F0000DDB02FA0EFC22FA05F2801841F1000133
:1002000003FA0EF2801843FA05F359410EE0A5F106
:1002100020050EF1200E012A03FA0EFC28BF4CF037
:10022000020C43FA05F3C01851EBE37101F00045ED
:1002300007D54FF0000EDCF1000C7EEB00006EEBFA
:100240000101B1F5801F1BD3B1F5001F0CD3490884
:100250005FEA30004FEA3C0C04F101044FEA4452DB
:1002600012F5800F80F09A80BCF1004F08BF5FEA62
:10027000500C50F1000041EB045141EA050130BD42
:100280005FEA4C0C404141EB0101013C28BFB1F554
:10029000801FE9D291F0000F04BF01460020B1FA9F
:1002A00081F308BF2033A3F10B03B3F120020CDA72
:1002B0000C3208DD02F1140CC2F10C0201FA0CF050
:1002C00021FA02F10CE002F11402D8BFC2F1200CB5
:1002D00001FA02F120FA0CFCDCBF41EA0C0190406B
:1002E000E41AA2BF01EB0451294330BD6FEA0404B4
:1002F0001F3C1CDA0C340EDC04F11404C4F120029F
:1003000020FA04F001FA02F340EA030021FA04F3B0
:1003100045EA030130BDC4F10C04C4F1200220FA07
:1003200002F001FA04F340EA0300294630BD21FA45
:1003300004F0294630BD94F0000F83F4801306BF0B
:1003400081F480110134013D4EE77FEA645C18BFFF
:100350007FEA655C29D094EA050F08BF90EA020F96
:1003600005D054EA000C04BF1946104630BD91EA8E
:10037000030F1EBF0021002030BD5FEA545C05D191
:100380004000494128BF41F0004130BD14F58004D0
:100390003CBF01F5801130BD01F0004545F0FE4144
:1003A00041F470014FF0000030BD7FEA645C1ABF79
:1003B000194610467FEA655C1CBF0B46024650EAB0
:1003C000013406BF52EA033591EA030F41F40021DC
:1003D00030BD00BF90F0000F04BF0021704730B562
:1003E0004FF4806404F132044FF000054FF0000137
:1003F00050E700BF90F0000F04BF0021704730B5F8
:100400004FF4806404F1320410F0004548BF4042CC
:100410004FF000013EE700BF42004FEAE2014FEA21
:1004200031014FEA02701FBF12F07F4393F07F4FFC
:1004300081F06051704732F07F4208BF704793F0FF
:100440007F4F04BF41F40021704730B54FF4607412
:1004500001F0004521F000411CE700BF50EA010215
:1004600008BF704730B54FF000050AE050EA0102BE
:1004700008BF704730B511F0004502D5404261EB2E
:1004800041014FF4806404F132045FEA915C3FF46F
:10049000D8AE4FF003025FEADC0C18BF03325FEA0C
:1004A000DC0C18BF033202EBDC02C2F1200300FABD
:1004B00003FC20FA02F001FA03FE40EA0E0021FAE2
:1004C00002F11444BDE600BF70B54FF0FF0C4CF4D0
:1004D000E06C1CEA11541DBF1CEA135594EA0C0F82
:1004E00095EA0C0F00F0DEF82C4481EA030621EABD
:1004F0004C5123EA4C5350EA013518BF52EA0335F8
:1005000041F4801143F4801338D0A0FB02CE4FF0A9
:100510000005E1FB02E506F00042E0FB03E54FF0D9
:100520000006E1FB03569CF0000F18BF4EF0010ED1
:10053000A4F1FF04B6F5007F64F5407404D25FEACD
:100540004E0E6D4146EB060642EAC62141EA555180
:100550004FEAC52040EA5E504FEACE2EB4F1FD0CC2
:1005600088BFBCF5E06F1ED8BEF1004F08BF5FEA40
:10057000500E50F1000041EB045170BD06F00046F2
:1005800046EA010140EA020081EA0301B4EB5C049F
:10059000C2BFD4EB0C0541EA045170BD41F4801197
:1005A0004FF0000E013C00F3AB8014F1360FDEBFBC
:1005B000002001F0004170BDC4F10004203C35DA98
:1005C0000C341BDC04F11404C4F1200500FA05F31B
:1005D00020FA04F001FA05F240EA020001F00042BC
:1005E00021F0004110EBD37021FA04F642EB060132
:1005F0005EEA430E08BF20EAD37070BDC4F10C045C
:10060000C4F1200500FA04F320FA05F001FA04F21F
:1006100040EA020001F0004110EBD37041F100010B
:100620005EEA430E08BF20EAD37070BDC4F1200516
:1006300000FA05F24EEA020E20FA04F301FA05F27E
:1006400043EA020321FA04F001F0004121FA04F226
:1006500020EA020000EBD3705EEA430E08BF20EAF6
:10066000D37070BD94F0000F0FD101F00046400030
:1006700041EB010111F4801F08BF013CF7D041EAB2
:10068000060195F0000F18BF704703F000465200B6
:1006900043EB030313F4801F08BF013DF7D043EA87
:1006A0000603704794EA0C0F0CEA135518BF95EA3D
:1006B0000C0F0CD050EA410618BF52EA4306D1D1C4
:1006C00081EA030101F000414FF0000070BD50EAE3
:1006D000410606BF1046194652EA430619D094EA6D
:1006E0000C0F02D150EA013613D195EA0C0F05D157
:1006F00052EA03361CBF104619460AD181EA0301AB
:1007000001F0004141F0FE4141F470014FF0000062
:1007100070BD41F0FE4141F4780170BD70B54FF0FD
:10072000FF0C4CF4E06C1CEA11541DBF1CEA13557D
:1007300094EA0C0F95EA0C0F00F0A7F8A4EB05045F
:1007400081EA030E52EA03354FEA013100F0888056
:100750004FEA03334FF0805545EA131343EA12631F
:100760004FEA022245EA111545EA10654FEA0026D4
:100770000EF000419D4208BF964244F1FD0404F58D
:10078000407402D25B084FEA3202B61A65EB0305E9
:100790005B084FEA32024FF480104FF4002CB6EBA6
:1007A000020E75EB030E22BFB61A754640EA0C0026
:1007B0005B084FEA3202B6EB020E75EB030E22BF66
:1007C000B61A754640EA5C005B084FEA3202B6EBA7
:1007D000020E75EB030E22BFB61A754640EA9C0066
:1007E0005B084FEA3202B6EB020E75EB030E22BF36
:1007F000B61A754640EADC0055EA060E18D04FEAF4
:10080000051545EA16754FEA06164FEAC30343EA93
:1008100052734FEAC2025FEA1C1CC0D111F4801F60
:100820000BD141EA00014FF000004FF0004CB6E759
:1008300011F4801F04BF01430020B4F1FD0C88BFF8
:10084000BCF5E06F3FF6AFAEB5EB030C04BFB6EB03
:10085000020C5FEA500C50F1000041EB045170BDF6
:100860000EF0004E4EEA113114EB5C04C2BFD4EB23
:100870000C0541EA045170BD41F480114FF0000EA7
:10088000013C90E645EA060E8DE60CEA135594EA23
:100890000C0F08BF95EA0C0F3FF43BAF94EA0C0F26
:1008A0000AD150EA01347FF434AF95EA0C0F7FF49B
:1008B00025AF104619462CE795EA0C0F06D152EAEF
:1008C00003353FF4FDAE1046194622E750EA4106D3
:1008D00018BF52EA43067FF4C5AE50EA41047FF4E4
:1008E0000DAF52EA43057FF4EBAE12E74A0011D296
:1008F00012F5001211D20DD56FF47873B3EB62527A
:100900000ED44FEAC12343F0004343EA505323FA85
:1009100002F070474FF00000704750EA013002D1FA
:100920004FF0FF3070474FF00000704780B588B03F
:1009300000AF07F1100300221A605A609A60DA6073
:100940002D4B9B692C4A43F0200393612A4B9B69F2
:1009500003F02003FB60FB68274B9B69264A43F0AA
:1009600004039361244B9B6903F00403BB60BB68E1
:10097000214B9B69204A43F0080393611E4B9B69FE
:1009800003F008037B607B68002202211B4800F013
:1009900098FE002243F60641194800F092FE022319
:1009A0003B6101237B610023BB610223FB6107F1F3
:1009B00010031946114800F0F1FC04233B610023A9
:1009C0007B610023BB6107F1100319460B4800F05F
:1009D000E5FC43F606433B6101237B610023BB61D9
:1009E0000223FB6107F110031946054800F0D6FC0D
:1009F00000BF2037BD4680BD001002400008014006
:100A0000000C014080B485B000AF78600023FB602B
:100A100003E000BFFB680133FB607A6813469B006C
:100A200013445B001A46FB689342F2D300BF00BF39
:100A30001437BD4680BC704780B500AF0122042149
:100A4000074800F03EFE0220FFF7DCFF00220421F1
:100A5000034800F036FE0220FFF7D4FF00BF80BD40
:100A6000000C014080B582B000AF0346FB71FB79FA
:100A700003F00103DBB21A464FF48061164800F020
:100A800020FEFB795B08DBB203F00103DBB21A4600
:100A90004FF40061104800F014FEFB799B08DBB2B4
:100AA00003F00103DBB21A464FF480510A4800F00C
:100AB00008FEFB79DB08DBB203F00103DBB21A4668
:100AC0004FF40051044800F0FCFDFFF7B5FF00BFF4
:100AD0000837BD4680BD00BF000C014080B582B024
:100AE00000AF0346FB71002202210B4800F0E9FD34
:100AF000FB791B09DBB21846FFF7B4FFFB7903F063
:100B00000F03DBB21846FFF7ADFF0520FFF77AFFB2
:100B100000BF0837BD4680BD000C014080B582B0E3
:100B200000AF0346FB71012202210B4800F0C9FD12
:100B3000FB791B09DBB21846FFF794FFFB7903F042
:100B40000F03DBB21846FFF78DFF0520FFF75AFFB2
:100B500000BF0837BD4680BD000C014080B582B0A3
:100B600000AF786006E07B685A1C7A601B781846F4
:100B7000FFF7D4FF7B681B78002BF4D100BF00BFC8
:100B80000837BD4680BD80B584B000AF03460A4635
:100B9000FB711346BB71FB79002B03D1BB79803B02
:100BA000DBB202E0BB79403BDBB2FB73FB7B184658
:100BB000FFF794FF00BF1037BD4680BD80B500AF82
:100BC0000120FFF78BFF0220FFF71CFF00BF80BD55
:100BD00080B500AF4FF4FA70FFF714FF0320FFF762
:100BE00041FF3220FFF70EFF0320FFF73BFF3220CB
:100BF000FFF708FF0320FFF735FF3220FFF702FF62
:100C00000220FFF72FFF2820FFF768FF0C20FFF7D7
:100C100065FF0620FFF762FF0120FFF75FFF00BFBF
:100C200080BD00000000000090B585B000AF00F06E
:100C30004BFA00F0A7F8FFF779FE00F0B1F94A4847
:100C400001F06BF900220221484800F03AFDFFF75D
:100C5000BFFFFFF7B3FF01220221444800F031FD3E
:100C6000414B1B6800225A6200BF3F4B1B685B6A06
:100C7000092BFAD9002202213C4800F022FD00F0A5
:100C80007BFA03463A4A136000BF0421374800F05C
:100C900001FD0346002B08D1354B1B6803F10A0404
:100CA00000F06AFA03469C42EFD82F4B1B685B6A40
:100CB000304A136000F060FA03462D4A136000BF0B
:100CC00004212A4800F0E6FC0346012B08D1284BFA
:100CD0001B6803F1320400F04FFA03469C42EFD840
:100CE000214B1B685B6A244A1360234B1A68214B13
:100CF0001B68D31A1846FFF76DFB19A3D3E900232D
:100D0000FFF7E2FB02460B46104619464FF0000281
:100D10004FF08043FFF702FD02460B46104619468E
:100D2000FFF7E4FD03469AB2144B1A80FFF746FF23
:100D300000210020FFF727FF104B1B881A463B4677
:100D40000F49184601F002FB3B461846FFF706FF25
:100D50004FF4FA7000F01AFA7DE700BFAFF300809D
:100D60009CC420B07268A13F8C00002000080140A4
:100D7000780000207C0000208000002084000020FB
:100D8000C42C000880B590B000AF07F118032822EA
:100D90000021184601F0FCFA3B1D00221A605A603F
:100DA0009A60DA601A610223BB610123BB621023DF
:100DB000FB6202237B630023BB634FF44023FB638E
:100DC00007F11803184600F095FC0346002B01D0EC
:100DD00000F018F80F237B600223BB608023FB60C8
:100DE00000233B6100237B613B1D0021184600F07E
:100DF00003FF0346002B01D000F004F800BF40378A
:100E0000BD4680BD80B400AF72B600BF00BFFDE735
:100E100080B485B000AF154B9B69144A43F00103C1
:100E20009361124B9B6903F00103BB60BB680F4BDE
:100E3000DB690E4A43F08053D3610C4BDB6903F04E
:100E400080537B607B680A4B5B68FB60FB6823F028
:100E5000E063FB60FB6843F00073FB60044AFB68DF
:100E6000536000BF1437BD4680BC7047001002407D
:100E70000000014080B400AF00BFFDE780B400AFC8
:100E800000BFFDE780B400AF00BFFDE780B400AF56
:100E900000BFFDE780B400AF00BFFDE780B400AF46
:100EA00000BFBD4680BC704780B400AF00BFBD46E8
:100EB00080BC704780B400AF00BFBD4680BC7047A7
:100EC00080B500AF00F046F900BF80BD80B586B0A8
:100ED00000AF7860144A154BD31A7B617B693B6184
:100EE000134B1B68002B02D1114B124A1A60104B96
:100EF0001A687B6813443A699A4207D201F050FAA3
:100F000003460C221A604FF0FF3309E0084B1B68C0
:100F1000FB60074B1A687B681344054A1360FB6843
:100F200018461837BD4680BD002800200004000088
:100F3000880000201802002080B400AF154B1B6809
:100F4000144A43F001031360124B5A681149124BC3
:100F500013404B600F4B1B680E4A23F0847323F43D
:100F6000803313600B4B1B680A4A23F48023136001
:100F7000084B5B68074A23F4FE035360054B4FF4AC
:100F80001F029A60054B4FF000629A6000BFBD4699
:100F900080BC7047001002400000FFF800ED00E048
:100FA00080B586B000AF07F1080300221A605A60CE
:100FB0009A60DA603B4600221A605A601E4B1F4A54
:100FC0001A601D4B47225A601B4B00229A601A4B35
:100FD0004FF6FF72DA60184B00221A61164B00229E
:100FE0005A61154B00229A61134800F06BFF0346CB
:100FF000002B01D0FFF706FF4FF48053BB6007F1D1
:10100000080319460C4800F0ABFF0346002B01D043
:10101000FFF7F8FE00233B6000237B603B46194648
:10102000054801F04FF90346002B01D0FFF7EAFE17
:1010300000BF1837BD4680BD8C000020002C014049
:1010400080B485B000AF78607B681B68094A934222
:101050000BD1094B9B69084A43F400639361064B2B
:101060009B6903F40063FB60FB6800BF1437BD4657
:1010700080BC7047002C014000100240002103E0BA
:101080000B4B5B58435004310A480B4B42189A42B1
:10109000F6D30A4A02E0002342F8043B084B9A4286
:1010A000F9D3FFF749FF01F081F9FFF7BDFD704764
:1010B000282D0008000000205C0000205C000020BB
:1010C00018020020FEE7000080B500AF084B1B6847
:1010D000074A43F010031360032000F02BF90F20A0
:1010E00000F008F8FFF794FE0023184680BD00BF0B
:1010F0000020024080B582B000AF7860124B1A68C1
:10110000124B1B7819464FF47A73B3FBF1F3B2FB21
:10111000F3F3184600F035F90346002B01D0012304
:101120000EE07B680F2B0AD8002279684FF0FF3061
:1011300000F00BF9064A7B681360002300E00123EE
:1011400018460837BD4680BD00000020080000207A
:101150000400002080B400AF054B1B781A46054BF5
:101160001B681344034A136000BFBD4680BC704730
:1011700008000020CC00002080B400AF024B1B68A8
:101180001846BD4680BC7047CC00002080B584B0B6
:1011900000AF7860FFF7F0FFB8607B68FB60FB682A
:1011A000B3F1FF3F05D00A4B1B781A46FB68134486
:1011B000FB6000BFFFF7E0FF0246BB68D31AFA6886
:1011C0009A42F7D800BF00BF1037BD4680BD00BFB0
:1011D0000800002080B485B000AF78607B6803F021
:1011E0000703FB600C4BDB68BB60BA684FF6FF037C
:1011F0001340BB60FB681A02BB68134343F0BF6334
:1012000043F40033BB60044ABB68D36000BF1437AB
:10121000BD4680BC704700BF00ED00E080B400AF69
:10122000044BDB681B0A03F007031846BD4680BC6D
:10123000704700BF00ED00E080B483B000AF03460C
:101240003960FB7197F90730002B0ADB3B68DAB293
:101250000C4997F907301201D2B20B4483F80023EE
:101260000AE03B68DAB20849FB7903F00F03043B5C
:101270001201D2B20B441A7600BF0C37BD4680BCB7
:10128000704700BF00E100E000ED00E080B489B0ED
:1012900000AFF860B9607A60FB6803F00703FB6198
:1012A000FB69C3F10703042B28BF0423BB61FB695F
:1012B0000433062B02D9FB69033B00E000237B616A
:1012C0004FF0FF32BB6902FA03F3DA43BB681A40FE
:1012D0007B699A404FF0FF317B6901FA03F3D943F0
:1012E0007B680B40134318462437BD4680BC7047CB
:1012F00080B582B000AF78607B68013BB3F1807F3E
:1013000001D301230FE00A4A7B68013B53600F21A0
:101310004FF0FF30FFF790FF054B00229A60044B1F
:1013200007221A60002318460837BD4680BD00BF5B
:1013300010E000E080B582B000AF78607868FFF719
:1013400049FF00BF0837BD4680BD80B586B000AFFD
:101350000346B9607A60FB7300237B61FFF75EFF91
:1013600078617A68B9687869FFF790FF024697F963
:101370000F3011461846FFF75FFF00BF1837BD4614
:1013800080BD80B582B000AF78607868FFF7B0FFAD
:10139000034618460837BD4680BD000080B48BB0B8
:1013A00000AF7860396000237B6200233B6261E11B
:1013B00001227B6A02FA03F3FB613B681B68FA694E
:1013C0001340BB61BA69FB699A4240F050813B68A7
:1013D0005B68974A93425ED0954A934275D8954A86
:1013E000934258D0934A93426FD8934A934252D033
:1013F000914A934269D8914A93424CD08F4A934282
:1014000063D88F4A934246D08D4A93425DD8122BBF
:101410002AD8122B59D801A252F823F097140008A9
:101420007114000883140008C5140008CB140008C8
:10143000CB140008CB140008CB140008CB14000810
:10144000CB140008CB140008CB140008CB14000800
:10145000CB140008CB140008CB140008CB140008F0
:10146000791400088D140008764A934213D02CE0BA
:101470003B68DB683B6229E03B68DB6804333B6226
:1014800024E03B68DB6808333B621FE03B68DB68B5
:101490000C333B621AE03B689B68002B02D10423AB
:1014A0003B6213E03B689B68012B05D108233B623C
:1014B0007B68FA691A6109E008233B627B68FA6974
:1014C0005A6103E000233B6200E000BFBB69FF2BD1
:1014D00001D87B6801E07B6804337B61BB69FF2B2B
:1014E00002D87B6A9B0002E07B6A083B9B003B6161
:1014F0007B691A680F213B6901FA03F3DB431A4049
:10150000396A3B6901FA03F31A437B691A603B6845
:101510005B6803F08053002B00F0A9804A4B9B6965
:10152000494A43F001039361474B9B6903F0010370
:10153000BB60BB68454A7B6A9B08023352F8233084
:10154000FB607B6A03F003039B000F2202FA03F3A4
:10155000DB43FA681340FB607B683D4A93420DD041
:101560007B683C4A934207D07B683B4A934201D157
:10157000022304E0032302E0012300E000237A6A4F
:1015800002F0030292009340FA681343FB602F4974
:101590007B6A9B080233FA6841F823203B685B684A
:1015A00003F48033002B06D02C4B1A682B49BB69FF
:1015B00013430B6006E0294B1A68BB69DB432749DC
:1015C00013400B603B685B6803F40033002B06D0CC
:1015D000224B5A682149BB6913434B6006E01F4BFD
:1015E0005A68BB69DB431D4913404B603B685B682D
:1015F00003F48013002B06D0184B9A681749BB6977
:1016000013438B6006E0154B9A68BB69DB431349B3
:1016100013408B603B685B6803F40013002B1FD002
:101620000E4BDA680D49BB691343CB601FE000BF66
:1016300000003210000031100000221000002110C4
:1016400000001210000011100010024000000140C4
:1016500000080140000C014000100140000401405E
:101660000B4BDA68BB69DB4309491340CB607B6AEB
:1016700001337B623B681A687B6A22FA03F3002B12
:101680007FF496AE00BF00BF2C37BD4680BC7047CC
:101690000004014080B485B000AF78600B467B80C9
:1016A0007B689A687B881340002B02D00123FB7370
:1016B00001E00023FB73FB7B18461437BD4680BC5A
:1016C000704780B483B000AF78600B467B801346D0
:1016D0007B707B78002B03D07A887B681A6103E0EB
:1016E0007B881A047B681A6100BF0C37BD4680BC3A
:1016F0007047000080B586B000AF78607B68002B33
:1017000001D1012372E27B681B6803F00103002B07
:1017100000F08780924B5B6803F00C03042B0CD025
:101720008F4B5B6803F00C03082B12D18C4B5B686A
:1017300003F48033B3F5803F0BD1894B1B6803F46E
:101740000033002B6CD07B685B68002B68D10123D1
:101750004CE27B685B68B3F5803F06D1804B1B6829
:101760007F4A43F4803313602EE07B685B68002B74
:101770000CD17B4B1B687A4A23F480331360784B7F
:101780001B68774A23F4802313601DE07B685B6845
:10179000B3F5A02F0CD1724B1B68714A43F4802320
:1017A00013606F4B1B686E4A43F4803313600BE089
:1017B0006B4B1B686A4A23F480331360684B1B68C9
:1017C000674A23F4802313607B685B68002B13D087
:1017D000FFF7D2FC386108E0FFF7CEFC02463B6918
:1017E000D31A642B01D9032300E25D4B1B6803F479
:1017F0000033002BF0D014E0FFF7BEFC386108E0A6
:10180000FFF7BAFC02463B69D31A642B01D90323C4
:10181000ECE1534B1B6803F40033002BF0D100E0E4
:1018200000BF7B681B6803F00203002B63D04C4BA6
:101830005B6803F00C03002B0BD0494B5B6803F093
:101840000C03082B1CD1464B5B6803F48033002B40
:1018500016D1434B1B6803F00203002B05D07B68B5
:101860001B69012B01D00123C0E13D4B1B6823F014
:10187000F8027B685B69DB00394913430B603AE08F
:101880007B681B69002B20D0364B01221A60FFF7C2
:1018900073FC386108E0FFF76FFC02463B69D31A1E
:1018A000022B01D90323A1E12D4B1B6803F0020396
:1018B000002BF0D02A4B1B6823F0F8027B685B6991
:1018C000DB00274913430B6015E0264B00221A600A
:1018D000FFF752FC386108E0FFF74EFC02463B6917
:1018E000D31A022B01D9032380E11D4B1B6803F09F
:1018F0000203002BF0D17B681B6803F00803002B68
:101900003AD07B689B69002B19D0174B01221A60D3
:10191000FFF732FC386108E0FFF72EFC02463B6916
:10192000D31A022B01D9032360E10D4B5B6A03F04C
:101930000203002BF0D0012000F0A6FA1CE00A4BB5
:1019400000221A60FFF718FC38610FE0FFF714FC63
:1019500002463B69D31A022B08D9032346E100BF94
:10196000001002400000424280044242924B5B6AF7
:1019700003F00203002BE9D17B681B6803F004032A
:10198000002B00F0A6800023FB758B4BDB6903F076
:101990008053002B0DD1884BDB69874A43F080537D
:1019A000D361854BDB6903F08053BB60BB680123C7
:1019B000FB75824B1B6803F48073002B18D17F4B9F
:1019C0001B687E4A43F480731360FFF7D5FB3861D0
:1019D00008E0FFF7D1FB02463B69D31A642B01D91B
:1019E000032303E1754B1B6803F48073002BF0D0D5
:1019F0007B68DB68012B06D16F4B1B6A6E4A43F094
:101A0000010313622DE07B68DB68002B0CD16A4B6D
:101A10001B6A694A23F001031362674B1B6A664A1B
:101A200023F0040313621CE07B68DB68052B0CD1F8
:101A3000614B1B6A604A43F0040313625E4B1B6AEE
:101A40005D4A43F0010313620BE05B4B1B6A5A4A89
:101A500023F001031362584B1B6A574A23F0040317
:101A600013627B68DB68002B15D0FFF785FB3861BC
:101A70000AE0FFF781FB02463B69D31A41F2883244
:101A8000934201D90323B1E04B4B1B6A03F00203DD
:101A9000002BEED014E0FFF76FFB38610AE0FFF790
:101AA0006BFB02463B69D31A41F28832934201D95B
:101AB00003239BE0404B1B6A03F00203002BEED193
:101AC000FB7D012B05D13C4BDB693B4A23F0805366
:101AD000D3617B68DB69002B00F08780364B5B6845
:101AE00003F00C03082B61D07B68DB69022B46D125
:101AF000334B00221A60FFF73FFB386108E0FFF725
:101B00003BFB02463B69D31A022B01D903236DE04C
:101B1000294B1B6803F00073002BF0D17B681B6A14
:101B2000B3F5803F08D1244B5B6823F400327B6817
:101B30009B68214913434B601F4B5B6823F474126D
:101B40007B68196A7B685B6A0B431B4913434B60D4
:101B50001B4B01221A60FFF70FFB386108E0FFF70B
:101B60000BFB02463B69D31A022B01D903233DE04C
:101B7000114B1B6803F00073002BF0D035E0104BC5
:101B800000221A60FFF7F8FA386108E0FFF7F4FA6C
:101B900002463B69D31A022B01D9032326E0064BE8
:101BA0001B6803F00073002BF0D11EE07B68DB693B
:101BB000012B07D1012319E0001002400070004002
:101BC000600042420B4B5B68FB60FB6803F48032B1
:101BD0007B681B6A9A4206D1FB6803F470127B682B
:101BE0005B6A9A4201D0012300E0002318461837AF
:101BF000BD4680BD0010024080B584B000AF786063
:101C000039607B68002B01D10123D0E06A4B1B684F
:101C100003F007033A689A4210D9674B1B6823F018
:101C2000070265493B6813430B60634B1B6803F075
:101C300007033A689A4201D00123B8E07B681B6829
:101C400003F00203002B20D07B681B6803F0040321
:101C5000002B05D0594B5B68584A43F4E06353604E
:101C60007B681B6803F00803002B05D0534B5B68AF
:101C7000524A43F460535360504B5B6823F0F002C8
:101C80007B689B684D4913434B607B681B6803F07E
:101C90000103002B40D07B685B68012B07D1474BC9
:101CA0001B6803F40033002B15D101237FE07B6810
:101CB0005B68022B07D1414B1B6803F00073002BBC
:101CC00009D1012373E03D4B1B6803F00203002B95
:101CD00001D101236BE0394B5B6823F003027B6881
:101CE0005B68364913434B60FFF746FAF8600AE039
:101CF000FFF742FA0246FB68D31A41F28832934258
:101D000001D9032353E02D4B5B6803F00C027B6881
:101D10005B689B009A42EBD1274B1B6803F00703DB
:101D20003A689A4210D2244B1B6823F007022249DA
:101D30003B6813430B60204B1B6803F007033A68B2
:101D40009A4201D0012332E07B681B6803F0040350
:101D5000002B08D0194B5B6823F4E0627B68DB68DA
:101D6000164913434B607B681B6803F00803002B84
:101D700009D0124B5B6823F460527B681B69DB005F
:101D80000E4913434B6000F021F802460B4B5B6891
:101D90001B0903F00F030A49CB5C22FA03F3094A3B
:101DA0001360094B1B681846FFF7A4F90023184677
:101DB0001037BD4680BD00BF002002400010024029
:101DC000DC2C0008000000200400002090B48AB041
:101DD00000AF294B3C1D0FCB84E80F0040F20123DC
:101DE0003B800023FB610023BB6100237B62002357
:101DF0007B6100233B62214B5B68FB61FB6903F065
:101E00000C03042B02D0082B03D02BE01C4B3B62AD
:101E10002BE0FB699B0C03F00F0328333B4413F8C2
:101E2000243C7B61FB6903F48033002B12D0134BFD
:101E30005B685B0C03F0010328333B4413F8283C38
:101E4000BB617B690E4A03FB02F2BB69B2FBF3F391
:101E50007B6204E07B690B4A02FB03F37B627B6AD3
:101E60003B6202E0064B3B6200BF3B6A18462837E4
:101E7000BD4690BC704700BFCC2C0008001002404B
:101E800000127A0000093D0080B485B000AF786090
:101E90000A4B1B680A4AA2FB03235B0A7A6802FB0F
:101EA00003F3FB6000BFFB685A1EFA60002BF9D1F8
:101EB00000BF00BF1437BD4680BC70470000002043
:101EC000D34D621080B582B000AF78607B68002B84
:101ED00001D101231DE07B6893F83D30DBB2002B7C
:101EE00006D17B68002283F83C207868FFF7A8F8C9
:101EF0007B68022283F83D207B681A687B68043384
:101F00001946104600F0F0F87B68012283F83D2066
:101F1000002318460837BD4680BD80B485B000AFA9
:101F200078607B68022283F83D207B681B689B6891
:101F300003F00703FB60FB68062B07D07B681B6878
:101F40001A687B681B6842F001021A607B680122F4
:101F500083F83D20002318461437BD4680BC7047E7
:101F600080B584B000AF786039607B6893F83C300E
:101F7000012B01D10223B3E07B68012283F83C20CE
:101F80007B68022283F83D207B681B689B68FB60AE
:101F9000FB6823F07703FB60FB6823F47F43FB605F
:101FA0007B681B68FA689A603B681B68B3F5005F42
:101FB0003ED0B3F5005F00F28780B3F5805F00F09C
:101FC0008580B3F5805F7FD8702B1AD0702B7BD8BB
:101FD000602B50D0602B77D8502B3CD0502B73D82F
:101FE000402B58D0402B6FD8302B64D0302B6BD87F
:101FF000202B60D0202B67D8002B5CD0102B5AD020
:1020000062E07B6818683B6899683B685A683B687F
:10201000DB6800F038F97B681B689B68FB60FB6835
:1020200043F07703FB607B681B68FA689A604EE0B8
:102030007B6818683B6899683B685A683B68DB684E
:1020400000F021F97B681B689A687B681B6842F482
:1020500080429A603BE07B6818683B6859683B683F
:10206000DB681A4600F098F87B681B685021184618
:1020700000F0EFF82BE07B6818683B6859683B6814
:10208000DB681A4600F0B6F87B681B6860211846CA
:1020900000F0DFF81BE07B6818683B6859683B6814
:1020A000DB681A4600F078F87B681B684021184608
:1020B00000F0CFF80BE07B681A683B681B68194694
:1020C000104600F0C6F802E000BF00E000BF7B68E9
:1020D000012283F83D207B68002283F83C20002306
:1020E00018461037BD4680BD80B485B000AF78601B
:1020F00039607B681B68FB607B68254A934207D088
:102100007B68B3F1804F03D07B68224A934208D1A9
:10211000FB6823F07003FB603B685B68FA6813435D
:10212000FB607B681A4A934207D07B68B3F1804F0B
:1021300003D07B68174A934208D1FB6823F44073AD
:10214000FB603B68DB68FA681343FB60FB6823F0C5
:1021500080023B685B691343FB607B68FA681A6026
:102160003B689A687B68DA623B681A687B689A62A7
:102170007B68074A934203D13B681A697B681A63FC
:102180007B6801225A6100BF1437BD4680BC70478E
:10219000002C01400004004080B487B000AFF8601C
:1021A000B9607A60FB681B6A7B61FB681B6A23F07D
:1021B0000102FB681A62FB689B693B613B6923F083
:1021C000F0033B617B681B013A6913433B617B6908
:1021D00023F00A037B617A69BB6813437B61FB6868
:1021E0003A699A61FB687A691A6200BF1C37BD467A
:1021F00080BC704780B487B000AFF860B9607A6087
:10220000FB681B6A23F01002FB681A62FB689B697B
:102210007B61FB681B6A3B617B6923F470437B61D4
:102220007B681B037A6913437B613B6923F0A0033E
:102230003B61BB681B013A6913433B61FB687A69E8
:102240009A61FB683A691A6200BF1C37BD4680BCC0
:10225000704780B485B000AF786039607B689B6858
:10226000FB60FB6823F07003FB603A68FB68134374
:1022700043F00703FB607B68FA689A6000BF14377D
:10228000BD4680BC704780B487B000AFF860B960CD
:102290007A603B60FB689B687B617B6923F47F43CA
:1022A0007B613B681A027B681A43BB6813437A69F7
:1022B00013437B61FB687A699A6000BF1C37BD4697
:1022C00080BC704780B485B000AF786039607B68AF
:1022D00093F83C30012B01D1022332E07B680122CC
:1022E00083F83C207B68022283F83D207B681B68D2
:1022F0005B68FB607B681B689B68BB60FB6823F0C6
:102300007003FB603B681B68FA681343FB60BB68A3
:1023100023F08003BB603B685B68BA681343BB6013
:102320007B681B68FA685A607B681B68BA689A60A9
:102330007B68012283F83D207B68002283F83C20E3
:10234000002318461437BD4680BC70470EB46FF0AA
:10235000004110B500249DB01FAB0290069007917C
:1023600004910948094953F8042B0591006802A912
:1023700001931B9400F09CF8029B1C701DB0BDE8FB
:10238000104003B0704700BF0C0000200802FFFFA0
:1023900003460244934200D1704703F8011BF9E75A
:1023A000014B1868704700BF0C00002070B5002674
:1023B0000C4D0D4C641BA410A64209D100F076FC14
:1023C00000260A4D0A4C641BA410A64205D170BD1C
:1023D00055F8043B98470136EEE755F8043B98471B
:1023E0000136F2E7202D0008202D0008202D0008DE
:1023F000242D0008704770472DE9F0471F468E686E
:102400008246BE420C4690460B682DD8B1F90C208E
:1024100012F4906F26D06569096905EB4505A3EBB9
:10242000010905EBD5757B1C4B446D109D4238BFEF
:102430001D46530527D5294600F058F9064660B3D6
:102440004A46216900F0D4FBA38923F4906343F04A
:102450008003A38126614E4426603E466561A5EB5C
:102460000905A560BE4200D93E4632464146206875
:1024700000F086FB0020A3689B1BA3602368334405
:102480002360BDE8F0872A4600F04CFB0646002892
:10249000E0D15046216900F0B9FB0C23CAF80030A6
:1024A000A3894FF0FF3043F04003A381E9E7000028
:1024B0002DE9F04F98468B8907461B060D461446BA
:1024C0009DB010D50B6973B9402100F00FF9286059
:1024D000286130B90C233B604FF0FF301DB0BDE8E0
:1024E000F08F40236B610023099320238DF829305E
:1024F00030234FF00109CDF80C80DFF898818DF87A
:102500002A3023469A4613F8012B0AB1252AF9D11D
:10251000BAEB040B0BD05B46224629463846FFF740
:102520006BFF013000F0A780099A5A4409929AF88B
:102530000030002B00F09F8000234FF0FF32CDE9E8
:1025400005230AF1010A049307938DF853301A9377
:102550005446052214F8011B4E4800F03BFB049A38
:10256000D8B9D00644BF20238DF85330110744BF9B
:102570002B238DF853309AF800302A2B15D054466F
:1025800000204FF00A0C079A214611F8013B303B1E
:10259000092B4BD9B0B1079214E0A0EB080309FA5C
:1025A00003F31343A2460493D2E7039B191D1B6850
:1025B0000391002BBBBF5B4242F0020207930793DB
:1025C000B8BF049223782E2B0AD163782A2B32D1FC
:1025D000039B02341A1D1B68039243EAE3730593BD
:1025E000DFF8B4A003225046217800F0F3FA38B1A6
:1025F0004022049BA0EB0A00824013430134049361
:1026000014F8011B062225488DF8281000F0E2FA84
:10261000002836D0224B1BBB039B073323F0070354
:1026200008330393099B334409936AE70C4601205E
:102630000CFB0232A8E700234FF00A0C19460134C4
:102640000593204610F8012B303A092A03D9002BB4
:10265000C6D00591C4E7044601230CFB0121F0E735
:1026600003AB00932A4638460E4B04A9AFF3008013
:10267000421C0646D6D1AB895B063FF52DAF0998C3
:102680002CE703AB00932A463846064B04A900F01A
:102690001FF9EDE7EC2C0008F22C0008F62C0008DE
:1026A00000000000F923000870B50F4E0C46316899
:1026B000054611B900F07EFA30602146284600F048
:1026C00079FA431C03D14FF0FF34204670BDC41C7F
:1026D00024F00304A042F8D0211A284600F06AFA38
:1026E0000130F2D1EFE700BF0C0200202DE9F843E2
:1026F000CD1C25F0030508350C2D38BF0C25002D09
:10270000064601DBA94204D90C2333600020BDE852
:10271000F883DFF8D48000F0F9F9D8F800301C46CF
:1027200044BB29463046FFF7BFFF431C044658D13F
:10273000D8F800402746002F43D1002C4BD0236807
:102740003946304604EB030900F034FA814542D1A2
:10275000216830466D1A2946FFF7A6FF01303AD0AE
:1027600023682B442360D8F800305A6862BBC8F84D
:1027700000700FE02268521B20D40B2A17D9611970
:10278000A342256018BF5960636808BFC8F80010ED
:1027900062514B60304600F0BFF904F10B00231D7D
:1027A00020F00700C21A1CBF1B1AA350AFE76268D3
:1027B000A3420CBFC8F800205A60EBE723466468C8
:1027C000AEE73C467F68B6E71A465B68A342FBD19A
:1027D00000235360DEE70C233046336000F09CF9A1
:1027E00094E70560D6E700BF100200202DE9F0470E
:1027F000164698468A680B6907469342B8BF134647
:10280000336091F843200C46DDF820900AB1013383
:1028100033602368990642BF33680233336025680A
:1028200015F0060506D104F1190AE36832689B1A0F
:10283000AB422BDC94F843302268003B18BF0123E5
:10284000920630D44146384604F14302C84701306D
:1028500023D02368226903F00603042B14BF00254C
:1028600033684FF0000608BFE56804F11A0408BF9A
:10287000ED1A54F8123C08BF25EAE5759342C4BF2F
:102880009B1AED18B5421AD1002008E001235246E8
:1028900041463846C847013003D14FF0FF30BDE80C
:1028A000F0870135C1E73020E11881F843005A1C58
:1028B00094F845102244023382F84310C2E7012302
:1028C000224641463846C8470130E6D00136D9E7AE
:1028D0002DE9FF470F7E9146782F80460C469A4699
:1028E0000C9E01F1430207D8622F0AD8002F00F096
:1028F000D180582F00F0B88004F1420684F842706D
:102900003AE0A7F16303152BF6D801A151F823F0A3
:10291000692900087D290008F9280008F92800081D
:10292000F9280008F92800087D290008F92800087E
:10293000F9280008F9280008F92800087B2A00086F
:10294000A7290008352A0008F9280008F9280008F6
:102950009D2A0008F9280008A7290008F92800087E
:10296000F92800083D2A000833681A1D1B683260E8
:1029700004F1420684F8423001239CE03368206869
:10298000191D3160060601D51D6803E04506FBD51B
:10299000B3F90050002D03DA2D236D4284F8433043
:1029A0000A23584811E021683368080653F8045B8D
:1029B00002D4490648BFADB26F2F336014BF0A235B
:1029C00008235048002184F843106668002EA66052
:1029D00005DB21682E4321F0040121604BD016460F
:1029E000B5FBF3F103FB1157C75D06F8017D2F46D8
:1029F000BB420D46F4D9082B0BD12368DF0708D55D
:102A0000236961689942DEBF302306F8013C06F174
:102A1000FF36921B22614B4621464046CDF800A06E
:102A200003AAFFF7E3FE01304AD14FF0FF3004B0B4
:102A3000BDE8F087236843F02003236078273248FD
:102A400084F84570236831681F0651F8045B02D48E
:102A50005F0648BFADB23160D90744BF43F02003E1
:102A600023601DB11023ADE72648E9E7236823F072
:102A700020032360F6E71646BDE733682568181D76
:102A8000616930602E061B6801D5196002E0680696
:102A9000FBD51980002316462361BCE7336800216B
:102AA0001A1D32601E686268304600F093F808B163
:102AB000801B606063682361002384F84330AAE7C9
:102AC0003246494640462369D0470130ADD023689D
:102AD0009B0713D4E068039B9842B8BF1846A6E74B
:102AE0000123324649464046D04701309DD001354A
:102AF000E36803995B1AAB42F2DCEBE7002504F1D3
:102B00001906F5E7FD2C00080E2D00080148FFF717
:102B100071BC00BF080200200148FFF76CBC00BF79
:102B2000080200202DE9F041074614460D4621B960
:102B30001146BDE8F041FFF7D9BD2AB900F066F8AB
:102B400025462846BDE8F08100F0A8F884420646F4
:102B500002D8B4EB500FF4D821463846FFF7C6FD33
:102B6000804608B94546ECE7B4422246294628BFCC
:102B7000324600F03DF82946384600F047F8F1E7C4
:102B8000884210B501EB020402D98442234607D8DB
:102B9000431EA14208D011F8012B03F8012FF8E7DA
:102BA000014602448A4200D110BD13F8014D02F8DB
:102BB000014DF7E738B50023054D044608462B6064
:102BC000FEF784F9431C02D12B6803B1236038BDA2
:102BD00014020020034610B5C9B2024493421846BD
:102BE00001D1002003E0047801338C42F6D110BDFE
:102BF0000A44914200F1FF3300D1704710B511F83B
:102C0000014B914203F8014FF9D110BD38B505468B
:102C1000002940D051F8043C0C1F002BB8BFE41829
:102C2000FFF774FF1C4A136833B9636014602846C9
:102C3000BDE83840FFF770BFA34208D920682118CB
:102C40008B4201BF19685B6809182160EDE71A46DD
:102C50005B680BB1A342FAD911685018A0420BD19E
:102C600020680144501883421160E0D118685B6805
:102C7000084410605360DAE702D90C232B60D6E7D2
:102C8000206821188B4201BF19685B680918216010
:102C900063605460CBE738BD1002002051F8043C5B
:102CA000181F002BBCBF0B58C0187047F8B500BFE9
:102CB000F8BC08BC9E467047F8B500BFF8BC08BC1D
:042CC0009E46704775
:102CC40025336420636D0000020304050607080928
:102CD4000A0B0C0D0E0F1010000000000000000085
:102CE4000102030406070809232D302B2000686C19
:102CF4004C0065666745464700303132333435361B
:102D04003738394142434445460030313233343553
:0C2D140036373839616263646566000080
:042D20003501000871
:042D24001101000891
:102D28000024F40010000000010000001000002042
:102D380000000000D000002038010020A001002081
:102D4800000000000000000000000000000000007B
:102D5800000000000000000000000000000000006B
:102D6800000000000000000000000000000000005B
:0C2D78000000000000000000000000004F
:040000050800107D62
:00000001FF
